:100000000C94990D0C94E30D0C94E30D0C94E30DFA
:100010000C94E30D0C94E30D0C94F5660C94E30D35
:100020000C94E30D0C94E30D0C94E30D0C94041864
:100030000C94A2170C94E30D0C94E30D0C94565CF5
:100040000C94E30D0C94E30D0C94E30D0C94E30D70
:100050000C94E30D0C9458130C94E30D0C94E30DE5
:100060000C94E30D0C94E30D0C94E30D0C94E30D50
:100070000C94E30D0C94E30D0C94E30D0C94E30D40
:100080000C94E30D0C941B670C94E30D696E64658E
:10009000782E68746D6C003C21444F435459504590
:1000A0002048544D4C205055424C494320222D2F7E
:1000B0002F5733432F2F4454442048544D4C203461
:1000C0002E3031205472616E736974696F6E616C89
:1000D0002F2F454E222022687474703A2F2F777785
:1000E000772E77332E6F72672F54522F68746D6C92
:1000F000342F6C6F6F73652E647464223E0A3C6803
:10010000746D6C3E0A3C686561643E0A093C746922
:10011000746C653E47617264656D6172696E653CC1
:100120002F7469746C653E0A093C212D2D6C696E33
:100130006B20687265663D2273637265656E2E631F
:100140007373222072656C3D227374796C657368D9
:100150006565742220747970653D22746578742F0A
:10016000637373222D2D3E0A093C6C696E6B2072FD
:10017000656C3D2269636F6E2220687265663D2260
:1001800066617669636F6E2E69636F222074797081
:10019000653D22696D6167652F782D69636F6E22F9
:1001A0003E0A093C6C696E6B2072656C3D22736877
:1001B0006F72746375742069636F6E222068726554
:1001C000663D2266617669636F6E2E69636F2220D9
:1001D000747970653D22696D6167652F782D69635B
:1001E0006F6E223E0A093C6D6574612068747470FC
:1001F0002D65717569763D22636F6E74656E742D21
:10020000747970652220636F6E74656E743D22741C
:100210006578742F68746D6C3B20636861727365D8
:10022000743D57696E646F77732D31323531223EDC
:100230000A3C2F686561643E0A3C626F64793E0A3D
:100240000A3C6469762069643D22676C6F62616C68
:10025000223E0A090A093C212D2D20696D67207371
:1002600072633D22692F6C6F676F2E67696622206B
:10027000616C743D22222077696474683D223634B3
:100280003222206865696768743D22393522206210
:100290006F726465723D223022207374796C653D03
:1002A00022646973706C61793A20626C6F636B3B96
:1002B000206D617267696E3A20303B207061646422
:1002C000696E673A2037307078203020323070788D
:1002D00020303B222D2D3E0A093C212D2D20646922
:1002E00076207374796C653D2270616464696E6711
:1002F0003A2030203020302033303270783B206676
:100300006F6E742D73697A653A20313770783B22AD
:100310003ECFF0EEE3F0E0ECECEDFBE920EAEEECB2
:10032000EFEBE5EAF120E4EBFF20ECEEEDE8F2EE96
:10033000F0E8EDE3E03C62723EF1F3E4EEE2FBF55F
:1003400020F1E8F1F2E5EC3C2F6469762D2D3E0AB0
:10035000093C646976207374796C653D2270616430
:1003600064696E673A20302030203020333032709C
:10037000783B20666F6E742D73697A653A20313749
:1003800070783B223ED3EDE8E2E5F0F1E0EBFCEDE6
:10039000FBE920EAEEEDF2F0EEEBEBE5F020E2E235
:1003A000EEE4E02DE2FBE2EEE4E03C2F6469763E11
:1003B0000A0A093C6469762069643D22656D70749F
:1003C00079223E266E6273703B3C2F6469763E0A4A
:1003D0000A3C646976207374796C653D22776964A0
:1003E00074683A203935253B20666C6F61743A2079
:1003F00072696768743B2070616464696E673A2053
:10040000303B223E0A090909093C68313E3C2F680D
:10041000313E0A0909093C2F6469763E0A09090937
:100420003C6272207374796C653D22636C65617205
:100430003A20626F74683B223E0A0909090A0909D9
:10044000093C7461626C652077696474683D22318F
:100450003030252220626F726465723D2230222086
:1004600063656C6C73706163696E673D2230222036
:1004700063656C6C70616464696E673D2230223E16
:100480000A090909093C74722076616C69676E3D3E
:1004900022746F70223E0A09090909093C7464201C
:1004A000636C6173733D22626C6F636B31223E0A31
:1004B00009090909093C68323ED1E8F1F2E5ECE0AE
:1004C0003C2F68323E0A09090909093C756C3E0A4D
:1004D000202020202020202020202020202020201C
:1004E000202020202020202020202020202020200C
:1004F00020202020202020202020202020202020FC
:100500003C6C693E3C6120687265663D22636769A8
:100510002D62696E2F746573742E6367693F45742D
:100520006865726E7574223E506172616D657465A6
:10053000722064656D6F3C2F613E3C2F6C693E0AF2
:1005400020202020202020202020202020202020AB
:10055000202020202020202020202020202020209B
:10056000202020202020202020202020202020208B
:100570003C6C693E3C6120687265663D22666F7224
:100580006D2E68746D6C223E466F726D2064656DD1
:100590006F3C2F613E3C2F6C693E0A2020202020BA
:1005A000202020202020202020202020202020204B
:1005B000202020202020202020202020202020203B
:1005C00020202020202020202020203C6C693E3C40
:1005D0006120687265663D226367692D62696E2FCE
:1005E000746872656164732E636769223E54687231
:1005F000656164206C6973743C2F613E3C2F6C69AB
:100600003E0A2020202020202020202020202020E2
:1006100020202020202020202020202020202020DA
:1006200020202020202020202020202020202020CA
:1006300020203C6C693E3C6120687265663D226307
:1006400067692D62696E2F74696D6572732E6367B9
:1006500069223E54696D6572206C6973743C2F6128
:100660003E3C2F6C693E0A202020202020202020A4
:10067000202020202020202020202020202020207A
:10068000202020202020202020202020202020206A
:10069000202020202020203C6C693E3C6120687294
:1006A00065663D226367692D62696E2F736F636BA8
:1006B0006574732E636769223E536F636B657420A4
:1006C0006C6973743C2F613E3C2F6C693E0A0909CA
:1006D0000909093C2F756C3E0A09090909093C2FD3
:1006E00074643E0A09090909093C74643E3C646962
:1006F00076207374796C653D2277696474683A205A
:10070000323570783B206865696768743A20323505
:1007100070783B223E3C212D2D202D2D3E3C2F6418
:1007200069763E3C2F74643E0A09090909093C7444
:100730006420636C6173733D22626C6F636B312262
:100740003E0A09090909093C68323ED1E5F2FC3C40
:100750002F68323E0A09090909093C756C3E0A09ED
:1007600009090909093C6C693E3C612068726566AB
:100770003D226367692D62696E2F6E6574776F72B3
:100780006B2E636769223E4D41432F495020C0E4E0
:10079000F0E5F13C2F613E0A09090909093C2F7572
:1007A0006C3E0A09090909093C2F74643E0A0909CB
:1007B0000909093C74643E3C646976207374796C61
:1007C000653D2277696474683A20323570783B2041
:1007D0006865696768743A20323570783B223E3C20
:1007E000212D2D202D2D3E3C2F6469763E3C2F740B
:1007F000643E0A09090909093C746420636C617349
:10080000733D22626C6F636B31223E0A090909094C
:10081000093C68323EC4E0F2F7E8EAE83C2F68326F
:100820003E0A09090909093C756C3E0A09090909CA
:1008300009093C6C693E3C6120687265663D226333
:1008400067692D62696E2F696E707574732E6367A8
:1008500069223EC2F5EEE4FB3C2F613E0A0909091C
:100860000909093C6C693E3C6120687265663D225D
:100870006367692D62696E2F6F7574707574732E5E
:10088000636769223EC2FBF5EEE4FB3C2F613E0A42
:1008900009090909093C2F756C3E0A09090909096A
:1008A0003C2F74643E0A090909093C2F74723E0A00
:1008B0000909093C2F7461626C653E0A0A0909093D
:1008C0003C6469762069643D22656D707479223ECE
:1008D000266E6273703B3C2F6469763E0A090909F3
:1008E0003C6469762069643D22666F6F746572228C
:1008F0003E0A09093C7461626C652077696474681A
:100900003D22313030252220626F726465723D22B3
:1009100030222063656C6C73706163696E673D2281
:1009200030222063656C6C70616464696E673D227F
:1009300030223E0A0909093C74722076616C6967AD
:100940006E3D22746F70223E0A090909093C7464E5
:1009500020636C6173733D22644C6566742066315C
:1009600031223E26636F70793B2032303037203C95
:100970006120687265663D22687474703A2F2F7723
:1009800077772E647A2E72752F223E4469676974D8
:10099000616C205A6F6E653C2F613E3C62723E3C3A
:1009A0006120687265663D226D61696C746F3A6D95
:1009B00061696C626F7840647A2E7275223E6D6157
:1009C000696C626F7840647A2E72753C2F613E3C90
:1009D0002F74643E0A090909093C746420636C6140
:1009E00073733D22663131223E266E6273703B3C4A
:1009F0002F74643E0A0A090909093C746420636C77
:100A00006173733D226631312220616C69676E3DEE
:100A1000227269676874223E3C6120687265663D97
:100A200022687474703A2F2F7777772E647A2E723B
:100A3000752F636F6E74616374732F223ECAEEED7F
:100A4000F2E0EAF2EDE0FF20E8EDF4EEF0ECE0F6A3
:100A5000E8FF3C2F613E3C2F74643E0A0909093CC3
:100A60002F74723E0A09093C2F7461626C653E0A5C
:100A7000093C2F6469763E0A3C2F6469763E0A3C45
:100A8000736372697074206C616E67756167653D30
:100A9000224A617661536372697074223E3C212D53
:100AA0002D0A69662028646F63756D656E742E6704
:100AB0006574456C656D656E7442794964297B0A7D
:100AC0000976617220656D7074203D20646F6375D6
:100AD0006D656E742E676574456C656D656E7442E8
:100AE0007949642827656D70747927293B0A09764E
:100AF000617220666F6F74203D20646F63756D6551
:100B00006E742E676574456C656D656E74427949C7
:100B1000642827666F6F74657227293B0A09656D23
:100B200070742E7374796C652E68656967687420BB
:100B30003D20666F6F742E7374796C652E686569DD
:100B4000676874203D20276175746F273B0A09652B
:100B50006D70742E696E6E657248544D4C203D2048
:100B6000666F6F742E696E6E657248544D4C3B0A09
:100B70007D0A2D2D3E3C2F7363726970743E0A3CD2
:100B8000736372697074207372633D226874747049
:100B90003A2F2F7777772E676F6F676C652D616EB1
:100BA000616C79746963732E636F6D2F75726368FE
:100BB000696E2E6A732220747970653D227465789F
:100BC000742F6A617661736372697074223E0A3CA5
:100BD0002F7363726970743E0A3C73637269707438
:100BE00020747970653D22746578742F6A6176612E
:100BF000736372697074223E0A5F75616363742067
:100C00003D202255412D3530393231392D35223BA9
:100C10000A75726368696E547261636B6572282924
:100C20003B0A3C2F7363726970743E0A3C2F626FFB
:100C300064793E0A3C2F68746D6C3E692F6469725A
:100C40006563746F72795F686F6C642E747874007A
:100C5000666F726D2E68746D6C003C48544D4C3E4E
:100C60000D0A3C484541443E0D0A3C5449544C450C
:100C70003E466F726D3C2F5449544C453E0D0A3C24
:100C80002F484541443E0D0A3C666F726D206163FA
:100C900074696F6E3D226367692D62696E2F666F9E
:100CA000726D2E63676922206D6574686F643D22E2
:100CB0006765742263656C6C7370616464696E67E8
:100CC0003D223622206267636F6C6F723D222338AB
:100CD0003038303830223E0D0A3C68313E466F7263
:100CE0006D3C2F68313E3C42523E0D0A3C746162BD
:100CF0006C6520206267636F6C6F723D2223453004
:100D00004530453022206865696768743D2231337B
:100D100030222077696474683D22343536223E0DD6
:100D20000A3C74723E0D0A3C544420686569676849
:100D3000743D223239222077696474683D22383646
:100D4000223E20506172616D313A3C2F54443E0D79
:100D50000A3C5444206865696768743D2232392230
:100D60002077696474683D22333630223E3C696ED8
:100D700070757420747970653D22746578742220D2
:100D80006E616D653D225431222073697A653D2282
:100D90003438222076616C75653D2230303439223A
:100DA0003E3C2F54443E0D0A3C2F74723E0D0A3CCB
:100DB00074723E0D0A3C5444206865696768743D4E
:100DC000223332222077696474683D223836223E0D
:100DD00020506172616D323A3C2F54443E0D0A3C02
:100DE0005444206865696768743D22333222207755
:100DF000696474683D22333630223E3C696E7075FA
:100E00007420747970653D227465787422206E6157
:100E10006D653D225432222073697A653D22362267
:100E20002076616C75653D2231223E3C2F54443E54
:100E30000D0A3C2F74723E0D0A3C74723E0D0A3C42
:100E40005444206865696768743D223834222077ED
:100E5000696474683D223836223E506172616D3398
:100E60003C2F54443E0D0A3C544420686569676831
:100E7000743D223834222077696474683D22333609
:100E800030223E3C544558544152454120747970BB
:100E9000653D227465787422206E616D653D225433
:100EA00065787422206D61786C656E6774683D2288
:100EB0003136302220636F6C733D343120726F778E
:100EC000733D353E3C2F74657874617265613E3CBC
:100ED0002F54443E0D0A3C2F74723E0D0A3C54447C
:100EE00020636F6C7370616E3D3220616C69676E58
:100EF0003D6D6964646C65206865696768743D224E
:100F00003237222077696474683D223435302220DC
:100F10003E3C696E7075742074797065203D2022A6
:100F20007375626D697422202076616C75653D224F
:100F300073656E64222073697A653D2238223E0D06
:100F40000A093C696E7075742074797065203D20C3
:100F5000227265736574222076616C75653D22632B
:100F6000616E63656C222073697A653D2238223E8A
:100F70003C2F54443E0D0A3C2F74723E0D0A3C2F08
:100F80007461626C653E0D0A3C703E3C6120687283
:100F900065663D222E2E2F696E6465782E68746D0D
:100FA0006C223E72657475726E20746F206D61697B
:100FB0006E3C2F613E0D0A3C2F666F726D3E0D0A2E
:100FC0000D0A3C2F48544D4C3E0D0A3C5441424CB6
:100FD0004520424F524445523E0D0A003C2F544199
:100FE000424C453E3C2F424F44593E3C2F48544DC5
:100FF0004C3E003C48544D4C3E3C484541443E3CF0
:101000005449544C453E003C2F5449544C453E3CB9
:101010002F484541443E3C424F44593E3C48313EB6
:10102000003C2F48313E0D0A003C54523E3C54488F
:101030003E2054797065203C2F54483E3C54483E35
:10104000204E756D626572203C2F54483E3C5448DA
:101050003E2056616C7565203C2F54483E3C2F5411
:10106000523E0D0A003C54523E3C54443E20414402
:1010700043203C2F54443E3C54443E202575203CA4
:101080002F54443E3C54443E203078253033582081
:101090003C2F54443E3C2F54523E0D0A003C5452C7
:1010A0003E3C54443E202573203C2F54443E3C5447
:1010B000443E202575203C2F54443E3C54443E2061
:1010C000307825303258203C2F54443E3C2F545227
:1010D0003E0D0A003C54523E3C54443E2044696755
:1010E000203C2F54443E3C54443E202575203C2F48
:1010F00054443E3C54443E20307825303258202819
:10110000002029203C2F54443E3C2F54523E0D0ACF
:10111000003C54523E3C54443E2054656D70203C8B
:101120002F54443E3C54443E202575203C2F5444CB
:101130003E3C54443E20307825303458203C2F54D7
:10114000443E3C2F54523E0D0A003C54523E3C5407
:10115000483E2054797065203C2F54483E3C54480A
:101160003E204E616D65203C2F54483E3C54483E25
:101170002056616C7565203C2F54483E3C2F5452DC
:101180003E0D0A003C54523E3C54443E20416464AF
:1011900072657373203C2F54443E3C54443E204DB2
:1011A0004143203C2F54443E3C54443E20253032A1
:1011B000583A253032583A253032583A253032588C
:1011C0003A253032583A25303258203C2F54443E8C
:1011D0003C2F54523E0D0A003C54523E3C54443E77
:1011E0002041646472657373203C2F54443E3C5428
:1011F000443E204950203C2F54443E3C54443E2021
:101200002573203C2F54443E3C2F54523E0D0A007F
:101210003C54523E3C54443E2041646472657373B6
:10122000203C2F54443E3C54443E20436F6E66693C
:101230006775726564204950203C2F54443E3C54ED
:10124000443E202573203C2F54443E3C2F54523EB4
:101250000D0A003C54523E3C54443E2041646472AA
:10126000657373203C2F54443E3C54443E204761F8
:101270007465776179203C2F54443E3C54443E20B1
:101280002573203C2F54443E3C2F54523E0D0A00FF
:101290003C54523E3C54483E2054797065203C2FCB
:1012A00054483E3C54483E204E756D626572203C69
:1012B0002F54483E3C54483E2056616C7565203C96
:1012C0002F54483E3C2F54523E0D0A003C54523E8F
:1012D0003C54443E202850574D2920756E696D704E
:1012E0006C203C2F54443E3C54443E202575203C09
:1012F0002F54443E3C54443E20307825303358200F
:101300003C2F54443E3C2F54523E0D0A003C545254
:101310003E3C54443E20446967203C2F54443E3CAC
:1013200054443E202575203C2F54443E3C54443EBA
:10133000203078253032582028002029203C2F5496
:10134000443E3C2F54523E0D0A003C48544D4C3E06
:101350003C484541443E3C5449544C453E506172E2
:10136000616D65746572733C2F5449544C453E3C25
:101370002F484541443E3C424F44593E3C48313E53
:10138000506172616D65746572733C2F48313E0027
:101390003C2F424F44593E3C2F48544D4C3E004D4B
:1013A0006574686F643A2025733C42523E0D0A56BC
:1013B000657273696F6E3A20485454502F25642E1D
:1013C00025643C42523E0D0A436F6E74656E742074
:1013D0006C656E6774683A2025643C42523E0D0A83
:1013E0000055524C3A2025733C42523E0D0A0041B2
:1013F0007267756D656E743A2025733C42523E0DDE
:101400000A00436F6E74656E7420747970653A20BB
:1014100025733C42523E0D0A00436F6F6B69653A7B
:101420002025733C42523E0D0A00417574682069C4
:101430006E666F3A2025733C42523E0D0A0055738A
:101440006572206167656E743A2025733C42523E96
:101450000D0A003C48544D4C3E3C484541443E3CFE
:101460005449544C453E546872656164733C2F5432
:1014700049544C453E3C2F484541443E3C424F4434
:10148000593E3C48313E546872656164733C2F4854
:10149000313E0D0A3C5441424C4520424F52444596
:1014A000523E3C54523E3C54483E48616E646C652A
:1014B0003C2F54483E3C54483E4E616D653C2F5491
:1014C000483E3C54483E5072696F726974793C2FB3
:1014D00054483E3C54483E5374617475733C2F54D9
:1014E000483E3C54483E4576656E743C42523E51FF
:1014F000756575653C2F54483E3C54483E54696DB3
:1015000065723C2F54483E3C54483E537461636BB3
:101510002D3C42523E706F696E7465723C2F544888
:101520003E3C54483E467265653C42523E537461AF
:10153000636B3C2F54483E3C2F54523E0D0A003CF6
:1015400054523E3C54443E253034583C2F54443E83
:101550003C54443E25733C2F54443E3C54443E2569
:10156000753C2F54443E3C54443E25733C2F544418
:101570003E3C54443E253034583C2F54443E3C5469
:10158000443E253034583C2F54443E3C54443E2580
:101590003034583C2F54443E3C54443E25753C2F37
:1015A00054443E3C54443E25733C2F54443E3C2F0F
:1015B00054523E0D0A003C2F5441424C453E3C2FB4
:1015C000424F44593E3C2F48544D4C3E003C4854F9
:1015D0004D4C3E3C484541443E3C5449544C453EAC
:1015E00054696D6572733C2F5449544C453E3C2FF1
:1015F000484541443E3C424F44593E3C48313E54AC
:10160000696D6572733C2F48313E0D0A003C5441B0
:10161000424C4520424F524445523E3C54523E3C7F
:1016200054483E48616E646C653C2F54483E3C54BF
:10163000483E436F756E74646F776E3C2F54483E1E
:101640003C54483E5469636B2052656C6F61643C46
:101650002F54483E3C54483E43616C6C6261636B5E
:101660003C42523E416464726573733C2F54483E61
:101670003C54483E43616C6C6261636B3C42523E39
:10168000417267756D656E743C2F54483E3C2F5413
:10169000523E0D0A003C54523E3C54443E253034E8
:1016A000583C2F54443E3C54443E256C753C2F54CA
:1016B000443E3C54443E256C753C2F54443E3C54BF
:1016C000443E253034583C2F54443E3C54443E253F
:1016D0003034583C2F54443E3C2F54523E0D0A00A7
:1016E0003C2F5441424C453E3C2F424F44593E3CD6
:1016F0002F48544D4C3E003C48544D4C3E3C4845D0
:1017000041443E3C5449544C453E536F636B6574B1
:10171000733C2F5449544C453E3C2F484541443E70
:101720003C424F44593E3C48313E536F636B6574B5
:10173000733C2F48313E0D0A3C5441424C452042F7
:101740004F524445523E3C54523E3C54483E486100
:101750006E646C653C2F54483E3C54483E5479704E
:10176000653C2F54483E3C54483E4C6F63616C3C92
:101770002F54483E3C54483E52656D6F74653C2F73
:1017800054483E3C54483E5374617475733C2F5426
:10179000483E3C2F54523E0D0A003C54523E3C54AD
:1017A000443E253034583C2F54443E3C54443E542F
:1017B00043503C2F54443E3C54443E25733A2575D7
:1017C0003C2F54443E003C54443E25733A25753C1E
:1017D0002F54443E3C54443E003C2F5441424C451F
:1017E0003E3C2F424F44593E3C2F48544D4C3E0006
:1017F0004C495354454E0053594E53454E54005393
:10180000594E52435644003C464F4E5420434F4C91
:101810004F523D234343303030303E4553544142D4
:101820004C3C2F464F4E543E0046494E574149547A
:10183000310046494E574149543200434C4F5345BD
:101840005741495400434C4F53494E47004C415374
:101850005441434B0054494D455741495400434C72
:101860004F53454400554E4B4E4F574E003C54523B
:101870003E3C54443E253034583C2F54443E3C5466
:10188000443E5544503C2F54443E3C54443E257302
:101890003A25753C2F54443E000D5363616E6E69CA
:1018A0006E672042757320666F722044533138583A
:1018B00032300D0A004E6F2053656E736F722066D2
:1018C0006F756E640D0A00427573204572726F72F7
:1018D0000D0A006E6F2070726573656E636520641B
:1018E0006574656374656400496E76616C69642033
:1018F0004368616E005665726966790042616420D2
:1019000041646472004461746120435243004E6F2D
:1019100020726573706F6E7365004261642072653A
:101920007475726E20666F726D6174004E756C6CAA
:1019300020506F696E7465720052414D2072642FA1
:101940007772203020627974657300427573206568
:1019500072726F722C20636865636B2070756C6C9B
:101960007570007265736F6C7574696F6E206F753A
:1019700074206F662072616E676500556E6B6E6FC6
:10198000776E003C48544D4C3E3C424F44593E3CDF
:1019900042523E3C48313E466F726D20526573752F
:1019A0006C743C2F48313E3C42523E3C42523E0019
:1019B0003C42523E3C42523E3C703E3C612068728A
:1019C00065663D222E2E2F696E6465782E68746DD3
:1019D0006C223E72657475726E20746F206D616941
:1019E0006E3C2F613E3C2F424F44593E3C2F4854A1
:1019F0004D4C3E3C2F703E0025733A2025733C42EF
:101A0000523E0D0A00FFFFFFFFFFFFFFFFFFFFFF3A
:101A10003EFFFFFF3F3435363738393A3B3C3DFF18
:101A2000FFFFFFFFFFFF000102030405060708098F
:101A30000A0B0C0D0E0F101112131415161718198E
:101A4000FFFFFFFFFFFF1A1B1C1D1E1F202122236B
:101A50002425262728292A2B2C2D2E2F30313233CE
:101A6000FFFFFFFFFF485454502F25642E256420AC
:101A700025642025730D0A5365727665723A2045F8
:101A8000746865726E75742025730D0A00436F6E5D
:101A900074656E742D547970653A2025730D0A00B3
:101AA000436F6E74656E742D4C656E6774683A2072
:101AB000256C640D0A00436F6E6E656374696F6E0A
:101AC0003A20636C6F73650D0A0D0A003C48544D53
:101AD0004C3E3C484541443E3C5449544C453E25CF
:101AE000642025733C2F5449544C453E3C2F4845B7
:101AF00041443E3C424F44593E25642025733C2FCF
:101B0000424F44593E3C2F48544D4C3E0057575786
:101B10002D41757468656E7469636174653A20421D
:101B200061736963207265616C6D3D222573220DBE
:101B30000A0080EC85BF11241FBECFEFD0E1DEBFCD
:101B4000CDBF19E0A0E0B1E0EAE9FBEE00E00BBF99
:101B500002C007900D92A23BB107D9F71CE0A2EB9F
:101B6000B9E001C01D92AE39B107E1F78FEF90EEF9
:101B70009EBF8DBF8E599C408158914048F08FEF99
:101B80009FED8E599C40BC018EE99CE00E94175647
:101B90000E94F05B892B59F089E0AEE2B7E0E4E700
:101BA000FCE00D9001928A95E1F70E940A5C20E822
:101BB00031E040E050E061E378E287E397E00E94A3
:101BC0008D560C9400000C9400000E945D12089544
:101BD0008091120B8F5F8093120B089583E19BE03D
:101BE0000E94295B0895EF92FF920F931F93CF936A
:101BF000DF938C0120E030E0FB018191882341F4E8
:101C00002F5F3F4F28303105C4F380E090E03BC0A8
:101C1000D8011196FB01319624E030E081918D933B
:101C20002150304037FFFACF82E0F801808386E010
:101C300091E09F938F930E94E36F0F900F90E801C4
:101C400085E0E82EF12CE00EF11EC017D10721F03F
:101C50008DE290E00E94F86F899199279F938F936E
:101C60008FE191E09F938F930E94E36F0F900F900D
:101C70000F900F90EC16FD0644F78AE090E00E946A
:101C8000F86F81E090E0DF91CF911F910F91FF906D
:101C9000EF90089580916500877F809365006AE0EA
:101CA00070E080E090E00E94BC5944E650E060E0C3
:101CB00070E083E19BE00E94A45A809165008860F7
:101CC000809365000E94DA130E94F8140E94CC18D9
:101CD0008091120B882351F08091120B81508093D8
:101CE000120B0E946D1E80E00E94AE200E948C1E8E
:101CF0000E94EA12CFCF1F93CF93DF93CDB7DEB709
:101D000025970FB6F894DEBF0FBECDBF80E197E2F6
:101D1000A0E0B0E089839A83AB83BC8384E291E046
:101D20009F938F930E94E36F80E00E940465BE0141
:101D30006F5F7F4F81E094E00E942664BE016F5F79
:101D40007F4F82E094E00E94266489819A81AB8172
:101D5000BC81BF93AF939F938F9380E391E09F9358
:101D60008F930E94E36F0E94102185E491E09F937E
:101D70008F930E94E36F10E08BE10E9470212DB7DA
:101D80003EB7265F3F4F0FB6F8943EBF0FBE2DBF44
:101D9000882309F411E01093CF09112319F485E683
:101DA00091E002C089E691E09F938F938CE691E0E9
:101DB0009F938F930E94E36F61EE82ED0E949B21BF
:101DC0000E94F32199279F938F9381E791E09F933E
:101DD0008F930E94E36FCE0105960E94D7218D81DB
:101DE00099279F938F9385E891E09F938F930E940B
:101DF000E36F0E942F23883619F48CE991E002C02A
:101E000081EA91E09F938F9384EA91E09F938F936F
:101E10000E94E36F0E94B010F8940E947A140E940E
:101E200031130E94B6180E940D1E78940E94391337
:101E30008DB79EB740960FB6F8949EBF0FBE8DBF6C
:101E400025960FB6F894DEBF0FBECDBFDF91CF91C0
:101E50001F910895FF920F931F93CF93DF93CDB7F8
:101E6000DEB724970FB6F894DEBF0FBECDBF80E07B
:101E700096E9A0E0B0E089839A83AB83BC8380E0DD
:101E80000E942E280E94C82680916500877F80933B
:101E9000650040E060E070E081EE98E00E94BB5B8E
:101EA00040915B0950915C0967EB71E089EB91E02F
:101EB0000E94E56E80915B0990915C090E94476EDB
:101EC000AE014F5F5F4F61E071E00E94D56C68EC3E
:101ED00070E080E090E00E94BC590E94305C9F93CB
:101EE0008F938FEB91E09F938F930E94E36F0E94FB
:101EF0007B0E45E060E07FEF84E099E00E94BB5BF1
:101F00000F900F900F900F90892B31F08DEE91E094
:101F10000E94FF6F0E94D32687E092E00E949C30CF
:101F200085E192E00E949C3060EF7BE080E091E0F0
:101F30000E94F30D892B29F500EA1BE0B80180E02F
:101F400091E00E94F30D892BE1F4085F1F4F8BE0B5
:101F5000083D180799F394F314C083E292E00E94BD
:101F6000FF6F8091650088608093650060E471E098
:101F700080E090E00E94BC590E94E226F8940C9404
:101F8000000020E63AEE40E050E060E071E081E4DD
:101F900092E00E94D8488C01892BF9F66091550C8B
:101FA0007091560C8091570C9091580C0E94EC3017
:101FB0009F938F9386E492E09F938F930E94E36FA9
:101FC00040E0B80182EB98E00E94BB5B61E279E1FE
:101FD00080E592E00E94504E60E17AE189E592E06E
:101FE0000E94504E65E97AE185E692E00E94504EEB
:101FF00069E07BE180E792E00E94504E6DE976E176
:102000008CE792E00E94504E60E977E187E892E029
:102010000E94504E68E377E183E992E00E94504EBF
:1020200069E777E28FE992E00E94504E68EA72E039
:1020300082EB92E00E94D04D91E0F92E0F900F902C
:102040000F900F9001E010E080E3F80EF092BF02D5
:1020500020E832E0A80164E077E28AEB92E00E9497
:102060008D5681EDF80E0F5F1F4F86E08F1560F7DC
:102070008EEF0E94D85700E020E030E045EE5DE0B2
:1020800068E873E180E090E00E946D5920E030E064
:1020900048EE5DE068EE73E080E090E00E946D59EC
:1020A0008091650088608093650020E832E040E020
:1020B00050E06AE47EE081EC92E00E948D5668EE8A
:1020C00073E080E090E00E94BC59F9CF30E040E03E
:1020D00050E046175707B9F0B8E1FC012081A8E0AD
:1020E000832F8227982F917080FD3B273695913062
:1020F00009F430682695A15099F74F5F5F4F3196EC
:102100004617570759F7832F99270895CF93DF93E1
:102110002FEF3FEF40E050E046175707ECF4C1E2E5
:10212000D0E1FC0180819927982F8827282739271B
:10213000A7E0C901880F991F37FF04C09C012C2715
:102140003D2701C09C01A150A7FFF3CF4F5F5F4F18
:1021500031964617570734F3C901DF91CF9108959F
:1021600085EE92E00E949C30DC01CB018093150B40
:102170009093160BA093170BB093180B20E832E046
:1021800040E050E06FE172E185EF92E00E948D56F1
:10219000089508951F93CF93DF93142FE9018823A7
:1021A00011F467FDF1C077276132710509F4ECC0C5
:1021B000623271054CF56131710509F464C0623118
:1021C00071058CF4633071054CF4613071050CF0CD
:1021D000DBC06115710509F44CC0C5C060317105E3
:1021E00009F44DC0C0C06431710509F456C06431B2
:1021F00071050CF44CC06531710509F452C06032B0
:10220000710509F452C0AFC06834710509F487C084
:1022100069347105ACF46133710509F49EC0623311
:1022200071052CF46033710509F451C09CC0603411
:10223000710509F46AC06134710509F46BC093C07B
:102240006135710509F47AC0623571054CF4693461
:10225000710509F469C06035710509F46AC083C06D
:102260006835710509F46FC06935710509F470C0EE
:102270007AC08091B5098F5F8093B50985C0812FA1
:102280000E94EB1481C0812F0E94CD137DC08091EC
:10229000B3098F5F8093B30977C0812F0E94BF1865
:1022A00073C0812F0E94121E6FC06C2F812F0E945D
:1022B00031158091B4098F5F8093B409DF93CF9378
:1022C000812F99279F938F938EEF92E011C06C2FEF
:1022D000812F0E9451148091B4098F5F8093B409BB
:1022E000DF93CF93812F99279F938F9384E193E07E
:1022F0009F938F930E94E36F8DB79EB706960FB69C
:10230000F8949EBF0FBE8DBF3FC0E12FFF27EA5953
:10231000F44F22C0E12FFF27E15BF44F1DC0E12FF6
:10232000FF27E15AF44F18C0E12FFF27E95BF44F74
:1023300013C0E12FFF27E75CF44F0EC0E12FFF270A
:10234000E359F44F09C0E12FFF27E05CF44F04C0CC
:10235000E12FFF27E95AF44FC0838091B4098F5FC2
:102360008093B40911C08091B3098F5F8093B30942
:102370007F936F938AE293E09F938F930E94E36F22
:102380000F900F900F900F90DF91CF911F910895B4
:102390000F931F93CF93DF93EC0166E070E00E94F0
:1023A00086109C01892F9927982F8E81891731F4E7
:1023B0008F81992730708217930731F18091B3098B
:1023C0008F5F8093B30981E493E09F938F930E9482
:1023D000E36F0F900F908E01095F1F4F899199272E
:1023E0009F938F9380E693E09F938F930E94E36F78
:1023F0000F900F900F900F900C171D077CF78AE03D
:1024000090E00E94F86F16C07981772321F08091C7
:10241000B209781779F45A814B818C81282F3327A0
:102420008D819927982F8827282B392B652F872F67
:102430000E94CA10DF91CF911F910F910895CF9301
:10244000DF93CDB7DEB760970FB6F894DEBF0FBE4F
:10245000CDBF80E094E09A87898781EF9EE30E9458
:10246000F32D5C0122E030E0AE01475F5F4F62E098
:1024700070E10E942D2F80E090E00E94F32D909358
:10248000B7098093B609CC24DD24760108E010E07A
:102490009E012F5F3F4FAE01455F5F4FBE01635FFF
:1024A0007F4FC5010E947E2E892B21F0CE0101961F
:1024B0000E94C8110E945457E6CF8091B5098F5FE2
:1024C0008093B5090895EF92FF920F931F93CF93D6
:1024D000DF93CDB7DEB728970FB6F894DEBF0FBEF7
:1024E000CDBF92E199839091B2099A838B836C83DB
:1024F0004D83852F99278E8366E070E0CE0101968B
:102500000E9486109C01892F99278F8328878091AC
:10251000150B9091160BA091170BB091180BE8E0DA
:10252000EE2EF12C8E010F5F1F4F21EF3EE3AC0129
:10253000BD018091B6099091B7090E943D2E289661
:102540000FB6F894DEBF0FBECDBFDF91CF911F91C4
:102550000F91FF90EF900895BF92CF92DF92EF928C
:10256000FF920F931F93CF93DF93B82E6A01062F2C
:10257000112778010894E11CF11CC7010E94917099
:10258000EC010097E9F0FC01B192A801B601CF017E
:102590000E948E748091150B9091160BA091170BD1
:1025A000B091180B8E0122EF3EE3AC01BD0180918A
:1025B000B6099091B7090E943D2ECE010E949470F9
:1025C000DF91CF911F910F91FF90EF90DF90CF900F
:1025D000BF9008958091B309882361F08091B30979
:1025E00081508093B30940E050E060E082E00E94B7
:1025F0006312F0CF8091B409882361F08091B4090F
:1026000081508093B40940E050E060E081E00E9496
:102610006312F0CF8091B509882311F18091B5093B
:1026200081508093B50940E050E060E0862F0E9421
:1026300063128091E402982F8F5F8093E4029330BD
:102640004CF340EF5BE068E083E00E94AC1246E6AA
:1026500053E06CE084E00E94AC121092E402DACF06
:10266000089516B880EC87B980E888B987E886B9FC
:102670000895F894809173038F5F80937303809122
:102680007303883010F01092730387B1807C87B990
:1026900087B190917303892B87B9349A86B1886486
:1026A00086B978940895F8943398349A7894089574
:1026B0001F920F920FB60F9211242F933F934F93B7
:1026C0005F936F937F938F939F93AF93BF93EF939A
:1026D000FF93339880917303E82FFF27EE0FFF1FBE
:1026E000E75DF44F84B199279183808380917303D0
:1026F000E82FFF27EE0FFF1FE75DF44F85B1992705
:10270000382F22272070337080819181822B932B68
:1027100091838083789480917303482F5527CA0151
:10272000840F951FFC01E75DF44FDC01A75EB44FF9
:10273000208131818D919C911197281B390B37FF96
:1027400003C0309521953F4F223131059CF08081A7
:10275000918111969C938E9381E090E002C0880F46
:10276000991F4A95E2F72091B809282B2093B809C0
:102770000E94EE0D0E943913FF91EF91BF91AF912E
:102780009F918F917F916F915F914F913F912F9189
:102790000F900FBE0F901F90189521E030E002C0FF
:1027A000220F331F8A95E2F78091B809822B80931C
:1027B000B8090895FF920F931F93CF93DF93FF24DF
:1027C000C0E0D0E009E21BE08091B80999270C2E07
:1027D00002C0959587950A94E2F780FF16C081E0C4
:1027E00090E00C2E02C0880F991F0A94E2F7982FF0
:1027F00090958091B80989238093B809F8014081A8
:1028000051816F2D81E10E946312F39421960E5F36
:102810001F4FF7E0FF15C0F6DF91CF911F910F9189
:10282000FF900895CF93DF939FEF27E43BE0CFE441
:10283000DBE0A7E5BBE04DE65BE087E0FA01119243
:10284000AF019D931992F90191939F01815087FFE8
:10285000F5CF26E63BE0CFE5DBE0A9E3BBE040E4D3
:102860005BE086E0FA011192AF011D921992F90125
:1028700011929F01815087FFF5CFDF91CF9108958D
:10288000873070F4E82FFF27EE0FFF1FE654F64F56
:10289000262F332780819181822B932B91838083F4
:1028A0000895992783309105D9F0843091054CF42F
:1028B0008130910589F08230910584F4892B51F0A3
:1028C00008958530910581F0853091055CF006977B
:1028D00071F008956ABB089567BB089564BB0895BD
:1028E00061BB089562B90895609361000895609393
:1028F00064000895CF9360E186E00E94401468E090
:1029000086E00E944014C0E060E08C2F0E945114C9
:10291000CF5FC730C8F30E94C826CF910895CF92E9
:10292000DF92EF92FF920F931F93CF93DF9389B3C0
:1029300080937C0B86B380937D0B83B380937E0B57
:1029400080B380937F0B81B18093800B80B18093A3
:10295000810B809163008093820B91E0E92EF12C32
:10296000E5E7FBE00CE71BE060E070E0B6E08AEB37
:10297000C82E89E0D82EE801A9918E014A2F55274B
:10298000E601299139916E01209530954223532318
:1029900080819927822393234817590769F0A083E0
:1029A0009701062E02C0220F331F0A94E2F780918E
:1029B000B909822B8093B909B1506F5F7F4F31966F
:1029C000B7FFD9CFDF91CF911F910F91FF90EF907B
:1029D000DF90CF90089521E030E002C0220F331F36
:1029E0008A95E2F78091B909822B8093B9090895FD
:1029F000FF920F931F93CF93DF93FF240CE71BE00D
:102A0000C0E0D0E08091B90999270C2E02C09595BD
:102A100087950A94E2F780FF17C081E090E00C2EC2
:102A200002C0880F991F0A94E2F7982F9095809121
:102A3000B90989238093B909F80180819927AC01EC
:102A40006F2D80E10E946312F39421960F5F1F4F58
:102A5000F6E0FF15B8F6DF91CF911F910F91FF902F
:102A60000895992783309105D9F0843091054CF46D
:102A70008130910589F08230910584F4892B51F0E1
:102A800008958530910581F0853091055CF00697B9
:102A900071F008956BBB089568BB089565BB0895F8
:102AA00062BB089563B908956093620008956093CE
:102AB00065000895992783309105E1F084309105F0
:102AC0004CF48130910589F0823091058CF4892B8A
:102AD00051F01AC08530910589F08530910564F078
:102AE000069779F011C08BB301C088B39927089578
:102AF00085B3FCCF82B3FACF83B1F8CF8091620067
:102B0000F5CF80916500F2CF80E090E00895EF92DC
:102B1000FF920F931F93CF93DF93EC018A0179010A
:102B200020E833E048EC50E0CE010E94984F2FEFB0
:102B30003FEF4FEF5FEF60917E0370917F03CE0117
:102B40000E94D64FBE0183EF9FE00E942F70BE010E
:102B5000C8010E94AD6FBE0187E090E10E942F7016
:102B6000BE01C8010E94AD6FBE0181E290E10E94EA
:102B70002F70BE018BEC9FE00E942F706FEF7FEFF4
:102B8000CE01F701099500E010E0B801CE01F70190
:102B90000995892B29F00E9454570F5F1F4FF5CFDD
:102BA000BE018CED9FE00E942F70CE010E94F96D56
:102BB00080E090E0DF91CF911F910F91FF90EF9017
:102BC00008950F931F93CF93DF93EC0177FF04C019
:102BD000BC0189E290E182C068307105FCF4FB0120
:102BE000E60FF71FE75DF44F808191819F938F93EC
:102BF0007F936F9385E690E19F938F93DF93CF93BD
:102C00000E941E7081E090E02DB73EB7285F3F4FD5
:102C10000FB6F8943EBF0FBE2DBF8AC068507040FB
:102C20006430710514F5FB01E60FF71FE057F44F10
:102C3000808191819F938F937F936F9360FF03C0F7
:102C400083E893E002C088E893E09F938F938DE937
:102C500090E19F938F93DF93CF930E941E7081E04A
:102C600090E0EDB7FEB73A965BC0645070406730B5
:102C70007105CCF58B010458144FF8018081992718
:102C80009F938F937F936F9384ED90E19F938F93A6
:102C9000DF93CF930E941E70F801008117E02DB7DB
:102CA0003EB7285F3F4F0FB6F8943EBF0FBE2DBF13
:102CB000BE0180E290E00E94856F07FF03C08DE8AF
:102CC00093E002C08FE893E0BE010E94AD6F000F59
:102CD000115017FFEDCFBE0181E091E10E942F70EE
:102CE00081E090E025C06750704068307105F4F4D1
:102CF000FB01E60FF71FE052F44F808191819F9313
:102D00008F937F936F9381E191E19F938F93DF93F3
:102D1000CF930E941E7081E090E0EDB7FEB7389629
:102D20000FB6F894FEBF0FBEEDBF02C080E090E08A
:102D3000DF91CF911F910F91089521EE35E141E987
:102D400053E00E94871508950F931F93CF93DF934D
:102D50008C01EB0177FF08C0BC018AE491E10E947D
:102D60002F7061E070E07EC06115710561F58091A2
:102D7000050199279F938F938091040199279F9331
:102D80008F938091030199279F938F9380910201E4
:102D900099279F938F938091010199279F938F93F8
:102DA0008091000199279F938F9384E891E19F93ED
:102DB0008F931F930F930E941E7061E070E08DB798
:102DC0009EB7409647C061307105B1F46091550CD3
:102DD0007091560C8091570C9091580C0E94EC30D9
:102DE0009F938F9388ED91E19F938F931F930F9300
:102DF0000E941E70BE012BC06230710579F4609193
:102E0000610C7091620C8091630C9091640C0E9433
:102E1000EC309F938F9380E192E111C06330710594
:102E2000F9F460915D0C70915E0C80915F0C909153
:102E3000600C0E94EC309F938F9383E592E19F9307
:102E40008F931F930F930E941E7061E070E08DB707
:102E50009EB706960FB6F8949EBF0FBE8DBF02C0F8
:102E600060E070E0CB01DF91CF911F910F91089549
:102E700024EA36E148E953E00E9487150895FF925D
:102E80000F931F93CF93DF938C01EB0177FF04C067
:102E9000BC0180E992E137C067307105CCF5862F1F
:102EA0000E945A1599279F938F93DF93CF938DE0BC
:102EB00093E19F938F931F930F930E941E708C2F0B
:102EC0000E945A15C82F87E0F82E8DB79EB7089636
:102ED0000FB6F8949EBF0FBE8DBFB80180E290E0A0
:102EE0000E94856FC7FF03C08DE893E002C08FE8A2
:102EF00093E0B8010E94AD6FCC0FFA94F7FEEDCFCE
:102F0000B8018AE393E10E942F7081E090E002C053
:102F100080E090E0DF91CF911F910F91FF90089595
:102F20002FE337E140EA53E00E948715089580932C
:102F3000C809882319F087B78F7C02C087B78063E0
:102F400087BF08951F920F920FB60F9211242F93EF
:102F50003F934F935F936F937F938F939F93AF9321
:102F6000BF93CF93EF93FF93C091C809CC23D1F5C2
:102F70008AB59BB520918E0B30918F0B820F931FDA
:102F80009BBD8ABD60E070E00EB406FC02C06FEF2E
:102F900077E080918D0BE82FFF27EE0FFF1FE95799
:102FA000F44F808191819B01281B390BC9019C0141
:102FB000442755278091890B90918A0BA0918B0B08
:102FC000B0918C0B820F931FA41FB51F8093890BA8
:102FD00090938A0BA0938B0BB0938C0B71836083BF
:102FE000C0938D0BFF91EF91CF91BF91AF919F91C6
:102FF0008F917F916F915F914F913F912F910F90A2
:103000000FBE0F901F9018951F920F920FB60F9240
:1030100011240F931F932F933F934F935F936F93BD
:103020007F938F939F93AF93BF93CF93DF93EF9350
:10303000FF938091C809882319F083E48EBD71C085
:1030400006B517B59EB580E489278EBD96FF60C092
:103050004091830B5091840B9801241B350B3093C6
:103060008F0B20938E0B6091850B7091860B1093C4
:10307000840B0093830BC801820F931F01969BBDA5
:103080008ABD80E186BF641B750B80E094E0C0E0E0
:10309000D0E0369527956217730720F0C82BD92BFF
:1030A000621B730B969587956115710511F000975A
:1030B00081F780918D0BE82FFF27EE0FFF1FE95757
:1030C000F44F808191819E01281B390BC9019C011D
:1030D000442755278091890B90918A0BA0918B0BE7
:1030E000B0918C0B820F931FA41FB51F8093890B87
:1030F00090938A0BA0938B0BB0938C0BD183C083DE
:1031000010928D0B84990DC006B605FC0AC09ACFAB
:103110001093860B0093850B849B03C006B605FEB7
:1031200091CFFF91EF91DF91CF91BF91AF919F919F
:103130008F917F916F915F914F913F912F911F914F
:103140000F910F900FBE0F901F90189520918E0B2E
:1031500030918F0B80E090E8B9010E946B75CB0134
:1031600008958091890B90918A0B08951FBC1BBC18
:103170001ABC83E48EBD87B7806387BF089521E0C2
:1031800030E002C0220F331F8A95E2F78091C9090F
:10319000822B8093C9090895CF92DF92FF920F93FB
:1031A0001F93CF93DF930E94B1188C010E94A61841
:1031B0009093910B8093900B1093930B0093920B31
:1031C000FF2400E010E080E9C82E8BE0D82EC8E98B
:1031D000DBE0F601419151916F0188819981481797
:1031E000590759F48091C9099927002E02C0959575
:1031F00087950A94E2F780FF15C05983488381E0E0
:1032000090E0002E02C0880F991F0A94E2F7982FD1
:1032100090958091C90989238093C9096F2D84E114
:103220000E946312F3940F5F1F4F2296F3E0FF1585
:1032300080F6DF91CF911F910F91FF90DF90CF909B
:1032400008950F931F93CF93DF938C01EB0124EB31
:1032500033E048EC50E00E94984F2FEF3FEF4FEFE4
:103260005FEF6091B2037091B303C8010E94D64F23
:10327000B8018AE493E10E942F708881998182309D
:10328000910561F0833091051CF4019721F00CC089
:10329000039739F009C027EB33E008C02BEB33E08C
:1032A00005C020EC33E002C025EC33E08C819D8129
:1032B0009F938F938A819B816AE070E00E947F7563
:1032C0009F938F938A819B816AE070E00E947F7553
:1032D0007F936F933F932F938FE993E19F938F9306
:1032E0001F930F930E941E708DB79EB70C960FB65A
:1032F000F8949EBF0FBE8DBF8E819F81009791F085
:103300009F938F9381EE93E19F938F931F930F93DE
:103310000E941E708DB79EB706960FB6F8949EBF9A
:103320000FBE8DBF88859985009791F09F938F93ED
:103330008FEE93E19F938F931F930F930E941E70C4
:103340008DB79EB706960FB6F8949EBF0FBE8DBF81
:103350008A859B85009791F09F938F9382E094E1FB
:103360009F938F931F930F930E941E708DB79EB7EC
:1033700006960FB6F8949EBF0FBE8DBF8C859D85B7
:10338000009791F09F938F9389E194E19F938F939E
:103390001F930F930E941E708DB79EB706960FB6AF
:1033A000F8949EBF0FBE8DBF8E859F85009791F0CC
:1033B0009F938F938AE294E19F938F931F930F9330
:1033C0000E941E708DB79EB706960FB6F8949EBFEA
:1033D0000FBE8DBF688979896115710591F07F9362
:1033E0006F938EE394E19F938F931F930F930E94AB
:1033F0001E708DB79EB706960FB6F8949EBF0FBE8F
:103400008DBFB80180E993E10E942F70C8010E942E
:10341000F96D80E090E0DF91CF911F910F910895B9
:103420000F931F93CF93DF938C01C091690CD091C0
:103430006A0C24EB33E048EC50E0C8010E94984F3E
:103440002FEF3FEF4FEF5FEF6091B2037091B30347
:10345000C8010E94D64FB80183E594E10E942F7005
:10346000C091690CD0916A0C209709F44FC0E9898A
:10347000FA8980819181A281B3818F5E9E4BAD4A92
:10348000BE4D19F08BE194E002C080E294E09F937E
:103490008F938E859F8529893A89821B930B9F93F1
:1034A0008F938E859F859F938F938B899C899F9304
:1034B0008F938D899E899F938F938D85E82FFF270A
:1034C000EE0FFF1FED5EFB4F808191819F938F93E5
:1034D000888999279F938F932496DF93CF9324977E
:1034E000DF93CF938FE395E19F938F931F930F9378
:1034F0000E941E708DB79EB746960FB6F8949EBF79
:103500000FBE8DBF0990D881C02DAECFB80186EB1C
:1035100095E10E942F70C8010E94F96D80E090E053
:10352000DF91CF911F910F910895CF92DF92EF928B
:10353000FF920F931F93CF93DF938C0124EB33E023
:1035400048EC50E0C8010E94984F2FEF3FEF4FEF3B
:103550005FEF6091B2037091B303C8010E94D64F30
:10356000B8018DEC95E10E942F70C0910F0AD091A7
:10357000100A2097D9F1B8018DE096E10E942F70D2
:10358000CC24DD2476018E819F81A885B985C80E63
:10359000D91EEA1EFB1E8C859D859F938F938A857D
:1035A0009B859F938F938A819B81AC81BD81BF93C3
:1035B000AF939F938F93FF92EF92DF92CF92DF931F
:1035C000CF9385E996E19F938F931F930F930E946A
:1035D0001E700990D881C02D8DB79EB742960FB648
:1035E000F8949EBF0FBE8DBF209769F6B80180EE9C
:1035F00096E10E942F70C8010E94F96D80E090E072
:10360000DF91CF911F910F91FF90EF90DF90CF90BE
:103610000895EF92FF920F931F93CF93DF937C0156
:1036200024EB33E048EC50E0C7010E94984F2FEFA5
:103630003FEF4FEF5FEF6091B2037091B303C701AB
:103640000E94D64FB70187EF96E10E942F7000913C
:10365000D0091091D1090115110509F4A1C0F80193
:103660008389992785309105C1F1863091058CF4C5
:103670008230910519F1833091052CF40097C9F13E
:103680000197C9F039C083309105D9F00497E1F072
:1036900033C08830910539F18930910534F4863092
:1036A0009105A9F00797E1F027C08930910591F0C5
:1036B0000A97E1F021C0C0EFD7E120C0C7EFD7E102
:1036C0001DC0CFEFD7E11AC0C7E0D8E117C0C9E2EB
:1036D000D8E114C0C2E3D8E111C0CBE3D8E10EC0F9
:1036E000C5E4D8E10BC0CDE4D8E108C0C5E5D8E118
:1036F00005C0CEE5D8E102C0C5E6D8E1F801808D6D
:10370000918D082E892F902D9F938F9364897589B1
:10371000868997890E94EC309F938F931F930F9314
:103720008AE997E19F938F93FF92EF920E941E7018
:103730008DB79EB70A960FB6F8949EBF0FBE8DBF89
:10374000F801868D978D082E892F902D9F938F934A
:10375000628D738D848D958D0E94EC309F938F9335
:1037600086EC97E19F938F93FF92EF920E941E70D9
:10377000B701CE010E942F70B70183E294E00E944E
:10378000AD6FC7010E94F96D8DB79EB708960FB651
:10379000F8949EBF0FBE8DBFF801008111815BCFF1
:1037A000C091430CD091440C209799F18A819B8160
:1037B000082E892F902D9F938F931F921F92DF9336
:1037C000CF938DE698E19F938F93FF92EF920E94A3
:1037D0001E701F921F921F921F9286EC97E19F937B
:1037E0008F93FF92EF920E941E70B70183E294E0E4
:1037F0000E94AD6FC7010E94F96D8DB79EB74296CA
:103800000FB6F8949EBF0FBE8DBF0990D881C02D12
:10381000CBCFB70189ED97E10E942F70C7010E94BD
:10382000F96D80E090E0DF91CF911F910F91FF90B3
:10383000EF9008950F931F93CF93DF93082FEB0121
:103840000E942F23209751F085E50E94452318E020
:1038500089910E9445231150D9F703C08CEC0E9436
:103860004523802F0E944523DF91CF911F910F9117
:1038700008950F931F93CF93C82FFB01DA01A9017D
:103880008081282F332781819927982F8827282BFB
:10389000392BC03159F42E7F63E0220F331F6A9514
:1038A000E1F78681281B3109245F3F4F37FF06C0AF
:1038B00081E08C93309521953F4F01C01C92C83216
:1038C00091F48481682F7727CB01807690708036C1
:1038D000910549F066FF02C02E7F05C065FF02C05A
:1038E0002C7F01C0287FC90134E0969587953A95D1
:1038F000E1F7FA018083822F8F70F801808380E0E6
:1039000090E0CF911F910F910895482FFB01808186
:10391000282F332781819927982F8827282B392B07
:10392000403159F42E7FA3E0220F331FAA95E1F70F
:103930008681281B3109245F3F4F50E037FF04C0C8
:1039400051E0309521953F4F483291F48481682FA2
:103950007727CB01807690708036910549F066FF1D
:1039600002C02E7F05C065FF02C02C7F01C0287FEA
:10397000C901552319F0909581959F4F08950F9394
:103980001F93CF93DF938C01EB01BE01F80180817F
:103990000E94911F982FF80180838E5F823058F02B
:1039A000992349F08881883231F0803121F08232C8
:1039B00011F0813051F7DF91CF911F910F91089550
:1039C0000F931F938C010E94FC1EB80184EB0E9490
:1039D000DC1F81E00E942D1F182F0E94FC1E80E03A
:1039E00090E0112311F081E090E01F910F91089574
:1039F0001F93CF93DF93182FEB018091CF0988237A
:103A000059F00E942F230E94E01E8823B1F0BE01CE
:103A100084E40E941A1C0AC00E94FC1E0E94E01E40
:103A2000882359F0BE0184E40E94DC1F113011F09C
:103A30000E94E61E80E090E002C082E090E0DF910C
:103A4000CF911F9108956F927F928F929F92AF9224
:103A5000BF92DF92EF92FF920F931F93CF93DF936A
:103A6000CDB7DEB729970FB6F894DEBF0FBECDBF36
:103A70004C013B010E94FC1E8091CF09882331F14B
:103A8000B4018EEB0E941A1CEE24FF2408E0D02E15
:103A90005E010894A11CB11C87010A0D1B1D0E9428
:103AA000701FF8018083DA940894E11CF11CD7FEA2
:103AB000EFCF69E070E0C5010E946610882331F500
:103AC000B501F40180810E94851C28C0B4018EEBF1
:103AD0000E94DC1FEE24FF2418E0D12E5E01089422
:103AE000A11CB11C87010A0D1B1D0E94701FF8014B
:103AF0008083DA940894E11CF11CD7FEEFCF69E0D3
:103B000070E0C5010E946610882319F083E090E000
:103B10000AC0B501F40180810E94851CF3019183E4
:103B2000808380E090E029960FB6F894DEBF0FBE48
:103B3000CDBFDF91CF911F910F91FF90EF90DF905C
:103B4000BF90AF909F908F907F906F9008951F933C
:103B5000CF93DF93CDB7DEB729970FB6F894DEBFCA
:103B60000FBECDBF89E998E10E94437010E08FEF4E
:103B70008987BE016F5F7F4FCE0109960E94BF1CEF
:103B800089858F3F19F485EB98E104C08E3F29F4B5
:103B900087EC98E10E94437034C0898199279F93F4
:103BA0008F9380E394E09F938F930E94E36F8981CA
:103BB0000F900F900F900F90813059F4A0EFBBE061
:103BC000FE01319697E081918D93915097FFFBCF45
:103BD00012C0E12FFF2783E0EE0FFF1F8A95E1F768
:103BE000E056F44FDE01119697E08D91819391504C
:103BF00097FFFBCF1F5F8985882319F0183008F4E1
:103C0000B8CF812F992729960FB6F894DEBF0FBE43
:103C1000CDBFDF91CF911F9108950E94A71D809382
:103C2000CB09089521E030E002C0220F331F8A95AE
:103C3000E2F78091CA09822B8093CA090895FF9206
:103C40000F931F93CF93DF93CDB7DEB722970FB6B5
:103C5000F894DEBF0FBECDBFFF248091CB09F816CC
:103C600080F50F2D1127C80123E0880F991F2A9591
:103C7000E1F7BE016F5F7F4F8056944F0E94231D76
:103C80008823D1F4F801E00FF11FE052F44F808156
:103C9000918149815A818417950771F081E090E004
:103CA00002C0880F991F0A95E2F72091CA09282BB4
:103CB0002093CA0951834083F3948091CB09F8166D
:103CC00080F222960FB6F894DEBF0FBECDBFDF9113
:103CD000CF911F910F91FF9008958091CC098F5F34
:103CE0008093CC0999278130910519F0029739F01A
:103CF000089560E070E081E00E94F81C0895109241
:103D0000CC090E941F1E60E070E081E00E94F81C58
:103D100081E08093CC090895FF920F931F93CF9376
:103D2000DF93FF248091CB09F81608F043C08091FF
:103D3000CA099927CF2DDD270C2E02C095958795AE
:103D40000A94E2F780FF30C081E090E00C2E02C0C0
:103D5000880F991F0A94E2F7982F90958091CA09CD
:103D600089238093CA098E010C0F1D1F0052144F26
:103D7000F801408151816F2D85E10E946312F801A5
:103D8000808191819F938F93DF93CF9388E494E018
:103D90009F938F930E94E36F8DB79EB706960FB6E1
:103DA000F8949EBF0FBE8DBFF3948091CB09F81697
:103DB00008F4BDCFDF91CF911F910F91FF9008952F
:103DC00080916300992780719070089580916500BB
:103DD00080618093650080916400806180936400BD
:103DE0000895809165008F7E8093650080916400C6
:103DF0008F7E809364000895809165008F7E80930C
:103E00006500809164008061809364008FE897E092
:103E10008115910511F00197F1F72FB7F894809172
:103E200064008F7E8093640089E091E081159105A4
:103E300011F00197F1F73091630030712FBF85E8E1
:103E400096E08115910511F00197F1F780916300DB
:103E500084FF31E0832F99270895282F3FB7F894E6
:103E60008091640080618093640087E090E0811518
:103E7000910511F00197F1F7222329F08091640058
:103E80008F7E8093640084E390E08115910511F0AA
:103E90000197F1F78091630084FF20E085EB90E0CB
:103EA0008115910511F00197F1F7809164008F7EE3
:103EB000809364003FBF822F992708951F93CF936B
:103EC000C82F18E08C2F81700E942D1FC69581117C
:103ED000C0681150B9F78C2F9927CF911F91089581
:103EE000CF93DF93CDB7DEB721970FB6F894DEBF3F
:103EF0000FBECDBF8091CF09882331F0CE0101964E
:103F00000E944123898103C08FEF0E945E1F992781
:103F100021960FB6F894DEBF0FBECDBFDF91CF91D3
:103F20000895DF92EF92FF920F931F93CF93DF9349
:103F3000E82EEB010E94FC1E182F882319F08FEF4A
:103F400090E032C080EF0E945E1FD12E00E488E036
:103F5000F82E81E00E942D1F182F81E00E942D1F56
:103F6000882329F0112371F08EEF90E01DC01123FA
:103F700049F40E1528F0888180FF04C0E01611F086
:103F800011E0D02E812F0E942D1F88818695888375
:103F9000112311F0806888830150FA94D1F621969C
:103FA0000023A9F68D2D9927DF91CF911F910F91B5
:103FB000FF90EF90DF9008950F931F93CF93DF93BF
:103FC000082FEB010E94FC1E209751F085E50E940E
:103FD0005E1F18E089910E945E1F1150D9F703C03F
:103FE0008CEC0E945E1F802F0E945E1FDF91CF919C
:103FF0001F910F910895DC01CB0181159105A10559
:10400000B10529F081509040A040B040D9F7089503
:104010006F927F928F929F92AF92BF92CF92DF92D8
:10402000EF92FF920F931F93CF93DF93CDB7DEB73D
:1040300022970FB6F894DEBF0FBECDBF182F062F04
:104040003A01B22E862F99279F938F93812F99271C
:104050009F938F9382E694E09F938F930E94E36FE8
:104060001983FE013196018322E3C22ED12CE12C6B
:10407000F12C00E010E0980142E050E0BF0188E63A
:104080000E94CF628C019F938F939EE7892E94E0CC
:10409000992E9F928F920E94E36F8DB79EB70A96DA
:1040A0000FB6F8949EBF0FBE8DBF11239CF169E13E
:1040B00070E080E090E00E94BC59BB2019F420E041
:1040C00030E036C0AB2CBB24BF92AF9288E894E0BE
:1040D0009F938F930E94E36F82E3C82ED12CE12C33
:1040E000F12C8501930140E050E0BA0188E60E947E
:1040F000CF628C019F938F939F928F920E94E36F68
:104100008DB79EB708960FB6F8949EBF0FBE8DBFB1
:1041100017FF05C00E945C63282F332709C00A15CA
:104120001B0519F480E090E002C08FEF90E09C0145
:10413000C90122960FB6F894DEBF0FBECDBFDF9146
:10414000CF911F910F91FF90EF90DF90CF90BF9094
:10415000AF909F908F907F906F900895FF920F93F4
:104160001F93CF93DF93CDB7DEB723970FB6F894A5
:10417000DEBF0FBECDBFF82E23E0AE014F5F5F4F15
:10418000682F85E10E940820882381F099279F935A
:104190008F938DE994E09F938F930E94E36F8FEF4D
:1041A0009FEF0F900F900F900F9025C08981853160
:1041B00019F08FEF9FEF1FC08A81082F11278B8185
:1041C0009927982F8827082B192B1F930F938F2D32
:1041D00099279F938F9383EC94E09F938F930E94F2
:1041E000E36FC8012DB73EB72A5F3F4F0FB6F89473
:1041F0003EBF0FBE2DBF23960FB6F894DEBF0FBE95
:10420000CDBFDF91CF911F910F91FF90089520E0D6
:1042100040E050E0622F80EF0E9408209927089527
:1042200088EE94E09F938F930E94E36F0E94072192
:1042300064EF71E080E090E00E94BC5980E00E9451
:10424000AE2087E095E00E94FF6F64EF71E080E0B0
:1042500090E00E94BC590F900F900895CF92DF928A
:10426000EF92FF920F931F93CF93DF93CDB7DEB7FB
:1042700021970FB6F894DEBF0FBECDBF898382E3CE
:10428000C82ED12CE12CF12C00E010E0980141E087
:1042900050E0BE01640F751F8091F80B0E94CF6241
:1042A00097FF05C00E945C63282F332702C020E0DF
:1042B00030E0C90121960FB6F894DEBF0FBECDBF26
:1042C000DF91CF911F910F91FF90EF90DF90CF90F2
:1042D00008958093F80B80EF0E942E21992708956E
:1042E0008093F80B0E94692199270895CF92DF925D
:1042F000EF92FF920F931F93262F332792E3C92E3D
:10430000D12CE12CF12C89019A0140E050E0BA0156
:104310000E94CF6297FF05C00E945C63282F33275D
:1043200002C020E030E0C9011F910F91FF90EF9093
:10433000DF90CF900895CF92DF92EF92FF920F938C
:104340001F93CF93DF93CDB7DEB722970FB6F894C4
:10435000DEBF0FBECDBF8983FE013196618322E3AC
:10436000C22ED12CE12CF12C00E010E0980142E0AB
:1043700050E0BF018091F80B0E94CF6297FF05C00B
:104380000E945C63282F332702C020E030E0C9017F
:1043900022960FB6F894DEBF0FBECDBFDF91CF914E
:1043A0001F910F91FF90EF90DF90CF900895CF93E2
:1043B000DF93EC0160EF81EE0E949B21882311F0D6
:1043C00099270EC0AE0161E08091F80B0E94762122
:1043D000888199279C012170307080FDF3CFC9013D
:1043E000DF91CF910895CF93DF93CDB7DEB72197BB
:1043F0000FB6F894DEBF0FBECDBF63EC81EE0E9416
:104400009B21AE014F5F5F4F61E08091F80B0E94EE
:1044100076218981992721960FB6F894DEBF0FBEC9
:10442000CDBFDF91CF910895CF93DF93CDB7DEB7A6
:1044300021970FB6F894DEBF0FBECDBF84EB0E946C
:104440002E21882331F099279F938F938DE095E05B
:104450000BC0CE0101960E94D721882381F09927B5
:104460009F938F9381E295E09F938F930E94E36FD8
:1044700080E090E00F900F900F900F9004C0898122
:1044800099278270907021960FB6F894DEBF0FBE08
:10449000CDBFDF91CF9108951F93CF93DF93CDB719
:1044A000DEB721970FB6F894DEBF0FBECDBF182F31
:1044B000CE0101960E94D721682F882361F4112331
:1044C00009F460E887E80E949B21CE0101960E94D2
:1044D000D721882319F080E090E00BC089819927CB
:1044E0009C012072307085FF03C081E090E001C024
:1044F000C90121960FB6F894DEBF0FBECDBFDF9184
:10450000CF911F9108951F93CF93DF93CDB7DEB75F
:1045100021970FB6F894DEBF0FBECDBF182FCE0186
:1045200001960E94D721112311F060E001C060E8DC
:1045300088E70E949B21CE0101960E94D7218981A4
:1045400099278076907035E0959587953A95E1F7B3
:10455000992721960FB6F894DEBF0FBECDBFDF912D
:10456000CF911F910895CF93DF93CDB7DEB72197F9
:104570000FB6F894DEBF0FBECDBFCE0101960E94EC
:10458000D721898199279C012870307083FF03C04F
:1045900081E090E001C0C90121960FB6F894DEBF1A
:1045A0000FBECDBFDF91CF9108951F93CF93DF93BF
:1045B000CDB7DEB721970FB6F894DEBF0FBECDBFE3
:1045C000182FCE0101960E94D721612F85EA0E9403
:1045D0009B2121960FB6F894DEBF0FBECDBFDF91B1
:1045E000CF911F9108950F931F93CF93DF93CDB772
:1045F000DEB721970FB6F894DEBF0FBECDBF8C019A
:10460000CE0101960E94D7218823C9F486E90E9431
:104610002E218823A1F4CE0101960E94D721882360
:1046200071F461EE862F0E949B21882341F4A8013A
:1046300061E08091F80B0E947621882311F0992780
:1046400002C080E090E021960FB6F894DEBF0FBE66
:10465000CDBFDF91CF911F910F91089508950E94D2
:104660001422882319F088E690E0089587E690E008
:10467000089581E00E944C22992708950E944C22BF
:1046800008950E94F322992708950E94D522089543
:104690000F931F93CF938C010E942F23883611F024
:1046A00099270EC085E50E944523C7E0F801819156
:1046B0008F010E944523C150C7FFF8CF80E090E0F2
:1046C000CF911F910F910895DF92EF92FF920F9378
:1046D0001F93CF93DF938B01D42E7901232B19F4F1
:1046E00080E790E027C0442319F48AE790E022C0D5
:1046F0000E944823C82F882329F099271BC084E6ED
:1047000090E018C08AEA0E944523802F0E9445232A
:10471000812F0E9445231C2FCD1550F4E701CE01B7
:104720000E944123882359F71F5F21961D15B8F376
:1047300080E090E0DF91CF911F910F91FF90EF907B
:10474000DF900895BF92CF92DF92EF92FF920F9386
:104750001F93CF93DF93CDB7DEB721970FB6F894B1
:10476000DEBF0FBECDBF7B01B42E6901232B19F430
:1047700080E790E038C0442319F48AE790E033C022
:104780000E944823182F882329F099272CC086E7F8
:1047900090E029C085E50E9445238E2D0E94452387
:1047A0008F2D0E944523F12E1B15D8F48601F801A8
:1047B00080810E944523CE0101960E944123CE01B3
:1047C00001960E944123CE0101960E9441239981C6
:1047D000F80180819817D9F6F3940F5F1F4FFB14EF
:1047E00030F380E090E021960FB6F894DEBF0FBE64
:1047F000CDBFDF91CF911F910F91FF90EF90DF9090
:10480000CF90BF9008950E94B3228823E1F30895CA
:104810001F93CF93DF93EC010E942F23883629F05A
:10482000992712C084E690E00FC083E30E944523DD
:1048300010E0CE010E9441238823A1F71F5F21963B
:104840001830B8F380E090E0DF91CF911F91089588
:104850001F93CF93DF9317E0EC0127968881219770
:1048600099279F938F938BE396E09F938F930E945A
:10487000E36F0F900F900F900F90115017FFEECF36
:10488000DF91CF911F910895FC018081861719F463
:1048900080E090E0089581E690E008959091F90B12
:1048A0009827EBE3F5E0E90FF11D80818093F90B88
:1048B00099270895CF92DF92EF92FF920F931F9363
:1048C000CF938C0181E0D82EEE24FD2CCE2C81E4F8
:1048D00096E00E94FF6FE092F90B8091CD0988234A
:1048E00021F40E942F23883629F081E596E00E946A
:1048F000FF6F66C080EF0E944523C0E0F8940E94DD
:1049000039238111C2E083EE91E08115910511F008
:104910000197F1F70E9439238111C16078948C2F9F
:1049200099279F938F938DE596E09F938F930E9495
:10493000E36F0F900F900F900F90C330C1F1CC2315
:1049400019F02C2F269511C08091CE09D81638F475
:10495000F801EE0DF11D20812F2131F003C02C2F25
:10496000D81611F421E001C0CD2CEE2DFF27222313
:1049700029F0E00FF11F80818F2906C0E00FF11FA1
:104980009F2D9095808189238083822F0E943E23D2
:10499000D394FF0C41F4F801EE0DF11D80810E94CB
:1049A0004E24E394F39487E08E1508F0A6CF80E4BC
:1049B0008D1520F48091F90B882329F01092CE09EF
:1049C00080E090E009C0C092CE09CC2009F481E0DB
:1049D0008093CD0981E090E0CF911F910F91FF90DE
:1049E000EF90DF90CF900895BF92CF92DF92EF9239
:1049F000FF920F931F93CF93DF93CDB7DEB724972A
:104A00000FB6F894DEBF0FBECDBF8C017B016A01EB
:104A100098E7B92EB982F8018081882311F08FEFD1
:104A20008083F80180818A83CE0104960E94D72179
:104A300060E08B2D0E949B21CE0104960E94D7211D
:104A40009C8195FF04C081E0F701808302C0F701DB
:104A5000108296FF04C081E0F601808302C0F60157
:104A600010829078903821F481E0F801808302C0B0
:104A7000F801108224960FB6F894DEBF0FBECDBFAA
:104A8000DF91CF911F910F91FF90EF90DF90CF902A
:104A9000BF9008958F929F92BF92CF92DF92EF9234
:104AA000FF920F931F93CF93DF93CDB7DEB723977A
:104AB0000FB6F894DEBF0FBECDBF7B014A0121E0E7
:104AC000D22EBB24CB2C0D2D1B2D882321F0EE24C0
:104AD000FF24B092FA0BF7018081882309F06AC0A5
:104AE0000E942F23883619F01093FA0B67C080EFCD
:104AF0000E9445238091FA0BD81648F4EC2DFF272D
:104B0000E550F44FE081E02321F4EB8306C0D81692
:104B100019F481E08B8301C01B82AE014F5F5F4FB0
:104B2000BE016E5F7F4FCE0103960E94F4248A81FE
:104B3000882341F48981882351F48B81882339F4B7
:104B4000BD2C05C0813019F489818130D1F08B8171
:104B5000EC2DFF27813029F4E550F44F8081802B24
:104B600006C0E550F44F902F909580818923808373
:104B7000D394000F11F4C39401E0F7E0FC1508F0A2
:104B8000B9CF81E4D816B1F4B092FA0BBB2021F46E
:104B900081E0F701808302C0F7011082F401ABEFDE
:104BA000BBE017E08D918193115017FFFBCF81E09F
:104BB00090E006C01092FA0BF701108280E090E0BE
:104BC00023960FB6F894DEBF0FBECDBFDF91CF9115
:104BD0001F910F91FF90EF90DF90CF90BF909F902B
:104BE0008F900895DF92EF92FF920F931F93CF93D0
:104BF000DF93CDB7DEB729970FB6F894DEBF0FBEAF
:104C0000CDBF8C01E62EFF24F092CE09F092CD09A3
:104C10000E942F23883619F080E090E03EC031E0FA
:104C2000D32EFE14C0F5AE014F5F5F4FBE01675F2C
:104C30007F4F8D2D0E944A25882369F5D82E88E064
:104C40009E012F5F3F4FD801F901982F01900D92DF
:104C50009A95E1F7085F1F4FF394FE013996D90149
:104C60000D9001928A95E1F7888599279F938F93FC
:104C7000898199279F938F9383E696E09F938F93E3
:104C80000E94E36FEDB7FEB736960FB6F894FEBFFD
:104C90000FBEEDBFC6CF8F2D992729960FB6F8947A
:104CA000DEBF0FBECDBFDF91CF911F910F91FF905F
:104CB000EF90DF900895CF93DF93882309F465C0C8
:104CC000C82FDD27DF93CF9386E896E09F938F93DD
:104CD0000E94E36F0F900F900F900F90C736D10591
:104CE00059F1C836D105A4F4C336D10589F1C436CB
:104CF000D1053CF4C136D10541F1C236D105B9F137
:104D00003CC0C436D10539F1C636D10539F135C0BC
:104D1000C237D10579F1C337D1053CF4C936D10585
:104D200071F0C037D105E9F028C0C637D10551F080
:104D3000CA37D105C9F021C083ED98E120C088EEC3
:104D400098E11DC085EF98E11AC08CEF98E117C07B
:104D500085E099E114C08EE099E111C08AE199E102
:104D60000EC08CE299E10BC089E399E108C08BE4A5
:104D700099E105C083E699E102C08BE799E10E94C1
:104D800043708AE090E00E94F86FDF91CF91089520
:104D90008091640088608093640080916500877FC3
:104DA00080936500089508956EE370E080E090E0E0
:104DB0000E94BC5908956DE770E080E090E00E9489
:104DC000BC590895809165008860809365000E94B9
:104DD000D42680916500877F809365000E94DB2642
:104DE000089564EF71E080E090E00E94BC5908955E
:104DF0000E94F1260E94F12608956AEF70E080E09B
:104E000090E00E94BC590895F82E0E940C298C0154
:104E1000CF2DDD27009779F4DF93CF9380E996E0DB
:104E20009F938F930E94E36F68E873E180E090E0C6
:104E30000E94BC5959C060E570E00E945A2A0E9445
:104E40001E569F938F93DF93CF938DEA96E09F93A7
:104E50008F930E94E36F8DB79EB706960FB6F894B6
:104E60009EBF0FBE8DBF12C0DF93CF938CEC96E038
:104E70009F938F930E94E36F68EE73E080E090E071
:104E80000E94BC590F900F900F900F900E941E56D9
:104E90008050904248F36AED76E0C8010E949D6D13
:104EA000EC01009779F48F2D99279F938F938EEDC6
:104EB00096E09F938F930E94E36F0F900F900F9057
:104EC0000F9005C00E946D51CE010E94556DC80122
:104ED0000E94072D8F2D99279F938F9382E097E053
:104EE0009F938F930E94E36F0F900F900F900F90FE
:104EF0008CCF4F925F926F927F929F92AF92BF92B0
:104F0000CF92DF92EF92FF920F931F93CF93DF9395
:104F1000CDB7DEB72E970FB6F894DEBF0FBECDBF6C
:104F20007C016B0121E237E048EC50E00E94984F91
:104F30002FEF3FEF4FEF5FEF60911F07709120075A
:104F4000C7010E94D64FB70183E899E10E942F70F4
:104F5000F60180859185892B09F460C09924AA24E3
:104F6000BB243501992069F4AE01435F5F4F64E2D1
:104F700077E0F601808591850E940E759A8389837A
:104F800011C08E010F5F1F4F060D171DAE01435F4D
:104F90005F4F64E277E080E090E00E940E75F801D8
:104FA000918380832E010894411C511C8501040DBE
:104FB000151DAE01435F5F4F66E277E080E090E051
:104FC0000E940E75F80197838683939482E090E0A7
:104FD000680E791EA80EB91E92E0991518F6992E42
:104FE0008201F801868197819F938F93819191919E
:104FF0008F019F938F9388EF99E19F938F93FF92F7
:10500000EF920E941E708DB79EB708960FB6F89467
:105010009EBF0FBE8DBF9A9497FEE3CFB70180EB82
:1050200099E10E942F70C7010E94F96D80E090E025
:105030002E960FB6F894DEBF0FBECDBFDF91CF9195
:105040001F910F91FF90EF90DF90CF90BF90AF90A6
:105050009F907F906F905F904F9008958093280766
:1050600008950E945C5920E033E040E050E06AE29D
:105070007FE089E297E00E948D568EEF0E94D8571C
:105080000E9454570E949857209128072F3FC1F340
:1050900095B79C7185B7837E822B85BF85B780626B
:1050A00085BF889585B78F7D85BF85B7837E892B22
:1050B00085BFE6CF0F931F93CF93DF938C01EC0155
:1050C000C45BDF4FE881F981309741F080819181A5
:1050D00099838883CF010E945D66F4CFE801E8AD33
:1050E000F9AD309749F080819181E80199AF88AF9F
:1050F000CF010E945D66F3CFE801C05BDF4FE8811E
:10510000F981309759F08081918199838883CF010B
:105110000E945D66E881F9813097A9F7DF91CF9110
:105120001F910F910895CF93DF93EC01E091D00987
:10513000F091D109A0EDB9E0309771F0EC17FD07BF
:1051400031F48881998111969C938E9305C0DF017B
:105150000190F081E02DF0CFEF2BA9F0CE010E945D
:105160005A288D859E85892B31F08F8598890E94DC
:105170009E551E861D8682E7FE0111928A95E9F7EB
:10518000CE010E949E55DF91CF910895EF92FF923C
:105190000F931F93CF93DF937C01EB0160E070E0EE
:1051A000E091D009F091D1098F013097E9F0808D1D
:1051B000918D8E159F0589F4828D938DA48DB58D6B
:1051C00082179307A407B50741F4868D978D8C1736
:1051D0009D0719F48389882321F40190F081E02D43
:1051E000E4CFBF01EF2B81F4F801309769F0838998
:1051F000813031F4808D918D8E159F0509F4BF01AA
:105200000190F081E02DF1CFCB01DF91CF911F9183
:105210000F91FF90EF9008951F93CF93DF93C0E01D
:10522000D0E08091D209882359F4182F0E94DC3BEA
:10523000892B09F411E01093D209112309F44EC00F
:1052400082E790E00E948955EC01892B09F446C061
:105250001B8A84E08C8388E09CE29E838D8389E3B3
:105260009CE298878F8385E99DE29A87898785EC00
:105270009DE29C878B8780E492E4AFE0B0E089A355
:105280009AA3ABA3BCA38DA39EA3AFA3B8A789A7E2
:105290009AA7ABA7BCA7FE01E85BFF4FCC5BDF4F33
:1052A00080E99CE099838883918380832E9628E10E
:1052B00032E039832883269688EE93E099838883A9
:1052C000C855D0408091D0099091D10999838883A5
:1052D0003A8B298BD093D109C093D009CE01DF91AD
:1052E000CF911F910895CF93DF93FC01EA014FEF17
:1052F0005FEF892B09F458C080E162307807D9F05C
:1053000080E1633078073CF46230710561F06150F0
:10531000704199F143C080E165307807B1F0665083
:105320007041D9F03BC0209769F12230310551F529
:10533000EE5AFF4F07C0209729F12230310511F5B1
:10534000E85BFF4F8081918124C02097D9F0243001
:105350003105C1F4E659FF4F07C0209799F024307A
:10536000310581F4EA59FF4F80819181A281B38197
:1053700088839983AA83BB830EC0209719F02230BB
:10538000310529F0E05AFF4F86E190E00BC081899A
:1053900092899983888340E050E006C0E05AFF4F2D
:1053A0008AE397E291838083CA01DF91CF910895C8
:1053B000EF92FF920F931F93CF93DF93EC017A014B
:1053C0008B01A901892B09F45DC08B89813029F4F7
:1053D000C05ADF4F8DE397E253C08B89882329F0B1
:1053E000C05ADF4F88E497E24BC060E070E18091E3
:1053F0003C0790913D07019690933D0780933C07B1
:1054000080913C0790913D07892B21F470933D07D3
:1054100060933C07E091D009F091D109309781F079
:1054200080913C0790913D07082E892F902D208D6B
:10543000318D2817390721F00190F081E02DEECF52
:105440003097A9F680913C0790913D07082E892F4F
:10545000902D998F888F042E452F502D5F8F4E8F62
:10546000EA8EFB8E0C8F1D8FAF01C801B7010E9421
:105470004E30FC01892B49F4C05ADF4F81E597E299
:10548000998388838FEF9FEF0EC00784F089E02D0A
:1054900087819085A185B2858C8B9D8BAE8BBF8BD0
:1054A000CE010E948A35DF91CF911F910F91FF901D
:1054B000EF900895FC01CB01082E892F902D918F3C
:1054C000808FCF010E946B350895CF92DF92EF92CB
:1054D000FF920F931F93CF93DF93EC016B018A012F
:1054E0000E945457209709F450C08B898430E1F50D
:1054F000C114D10409F44CC00115110509F448C0C8
:1055000092E5E92EF12CEC0EFD1EF70180819181D0
:105510008017910708F48C0149A55AA58DA19EA179
:10552000481B590B9A013695279536952795F70113
:10553000808191818217930738F08DA99EA9841BE1
:10554000950B80179107B8F4FE01E659FF4F408193
:10555000518162817381CE01CA960E94A45A892B1F
:10556000B9F48B898430C1F2C05ADF4F89E497E2E5
:10557000998388830AC088A1806188A3A801B601A5
:10558000CE010E948831892B31F04FEF5FEF04C0CC
:1055900040E050E001C0A801CA01DF91CF911F9106
:1055A0000F91FF90EF90DF90CF9008952F923F9250
:1055B0004F925F926F927F928F929F92AF92BF9223
:1055C000CF92DF92EF92FF920F931F93CF93DF93CF
:1055D000CDB7DEB726970FB6F894DEBF0FBECDBFAE
:1055E0009E838D837A8369834A010E9454572D815B
:1055F0003E81232B09F4DEC0ED81FE818389843056
:1056000021F08389853009F0CDC029813A81232B8F
:1056100009F4D3C08114910409F4CFC046E4E42E08
:10562000F12C6D817E81E60EF71E8B01065B1F4F0C
:10563000D7012D913C91F80180819181281739077C
:10564000B1F4ED81FE818389843009F0A9C0EA5963
:10565000FF4F40815181628173818D819E81825B88
:105660009F4F0E94A45A892B09F0A7C0E1CF36E4CE
:10567000432E512C2D813E81420E531E265B3F4FFF
:105680003C832B83D2012D913C91EB81FC81808165
:105690009181281B390B2815390508F4490181141B
:1056A000910409F48FC07C0166247724681479047E
:1056B000F0F52CE4222E312C2D813E81220E331E5A
:1056C000D101AD90BC90F501C188D288CE18DF0819
:1056D000840106191709C016D10608F48601F501E0
:1056E000878590898E0D9F1DA801BC0189819A81B3
:1056F000860D971D0E948E74600E711EE00EF11EC5
:105700000C151D0598F2D5018D919C91F1019183A5
:105710008083D2018D919C9111978E199F098D9351
:105720009C93C5010E945D66EE24FF24BFCFEB81F0
:10573000FC81F182E082ED81FE818389843009F071
:1057400041C0EC5BFF4F80819181AC01880D991DB8
:105750002D813E81285B3F4FD9012D913C911197BE
:10576000A854B040BE83AD832817390708F4C90197
:105770002D813E812E5A3F4FD9012D913C91119799
:10578000A255B040BE83AD8324173507C8F0281753
:105790003907B0F491838083CD010E94D83512C0BF
:1057A000ED81FE81E05AFF4FFE83ED8389E497E2AD
:1057B000918380834FEF5FEF06C040E050E003C06D
:1057C00091838083A401CA0126960FB6F894DEBFA8
:1057D0000FBECDBFDF91CF911F910F91FF90EF9042
:1057E000DF90CF90BF90AF909F908F907F906F9001
:1057F0005F904F903F902F900895FC01892B19F4F2
:1058000086E397E20895E05AFF4F808191810895E1
:105810000E94D62A0895CF92DF92EF92FF920F93C3
:105820001F93CF93DF936C017B018A01C0E0D0E02E
:10583000C017D107A4F4C8018C1B9D0B97012C0F36
:105840003D1FAC01B901C6010E94652A1816190650
:105850001CF08FEF9FEF04C0C80FD91FE9CFCE0116
:10586000DF91CF911F910F91FF90EF90DF90CF903C
:105870000895AF92BF92CF92DF92EF92FF920F9373
:105880001F93CF93DF93EC015A016B01209709F42A
:105890009AC08B89843039F0C05ADF4F89E497E28F
:1058A0009983888390C02D853E8541155105D9F493
:1058B00021153105A9F0A9016F857889CE010E94D3
:1058C0000B2C97FF07C08F8598890E949E55BE8636
:1058D000AD8679C08F8598890E949E55BE86AD861B
:1058E00040E050E088C069897A892115310531F599
:1058F0004617570790F0CA010E946B757C0185011D
:10590000081B190BA801B601CE010E940B2C99238C
:105910000CF459C0C00ED11E01C07A01E114F1048B
:1059200009F468C089899A890E941855988B8F87D5
:10593000009709F448C0A701B60153C0C901840FFC
:10594000951FEF85F8898617970768F4B601C90196
:105950008E0F9F1F0E948E748D859E858A0D9B1DC4
:105960009E878D8747C08B01021B130BA801B601D0
:10597000C9018E0F9F1F0E948E74C00ED11E4989CF
:105980005A896F857889CE010E940B2C9923ACF03F
:10599000C501801B910B8C0169897A89861797074D
:1059A000C0F00E946B757C01081B190BA801B601A1
:1059B000CE010E940B2C97FF09C08F8598890E9409
:1059C0009E551E861D864FEF5FEF15C0C00ED11E7F
:1059D00001C07C01E114F10439F0A701B6018F8503
:1059E00098890E948E7404C08F8598890E949E5564
:1059F000FE86ED86A501CA01DF91CF911F910F911F
:105A0000FF90EF90DF90CF90BF90AF9008950F93ED
:105A10001F938C0140E050E0BA010E94392CC8016C
:105A20000E94A5351F910F9108950F931F93CF9357
:105A3000DF93EC018A014FEF5FEF892B09F46FC010
:105A400080E16230780701F1E0E163307E0744F4E1
:105A50006230710569F06150704109F441C059C06C
:105A600080E16530780709F16650704139F151C025
:105A700001151105D9F122303105C1F5CE5ADF4F9C
:105A8000F801808191810EC00115110579F1223054
:105A9000310561F5C85BDF4FF80180819181998301
:105AA000888324979983888331C001151105F1F00B
:105AB00024303105D9F4C659DF4F08C0011511054E
:105AC000A9F02430310591F4CA59DF4FF8018081E3
:105AD0009181A281B38188839983AA83BB8316C0F5
