:1000000012C02AC03CC128C027C026C0B1C024C02D
:100010009AC122C021C020C01FC01EC01DC01CC06C
:10002000EFC01AC019C011241FBECFEDCDBF10E024
:10003000A0E6B0E0ECEBF5E002C005900D92A23630
:10004000B107D9F710E0A2E6B0E001C01D92A038D8
:10005000B107E1F704D0B0C2D3CFC8D108951F9340
:10006000CF93DF938E9A969AF8D16FD25DD04ED10E
:10007000BED0F0D0D6D181E0809362007894C8ECF5
:10008000D0E013E6969820ED37E0CE010197F1F726
:1000900021503040D1F780916200882369F010929E
:1000A0006200969A1093630080ED97E0FE0131970D
:1000B000F1F7019739F3FACF809163008150809373
:1000C00063008F5F813081F7F9D1EECFCF93DF935B
:1000D000EC01161617062CF52FEF3FEFA0E0B0E06D
:1000E00081E290E1FE01EA0FFB1FF081E0E02E27A4
:1000F0003F2740E005C0220F331F4F5F483049F0D3
:1001000037FFF9CF220F331F282739274F5F483099
:10011000B9F71196A617B7072CF3C901DF91CF9154
:1001200008952FEF3FEFF9CF83E080BF89E08FBDC7
:1001300083B7816083BF8EB581608EBDBA9ABB9A4A
:10014000BC9A8D9A80B7806880BF80B7806280BF7C
:100150008FB580688FBD8FB580628FBD16BE1BBC0A
:100160001ABC1CBE19BC18BC89B7826089BF08952F
:100170001F920F920FB60F9211242F933F934F931C
:100180005F936F937F938F939F93AF93BF93EF93FF
:10019000FF9380916A0090916B00019690936B00A1
:1001A00080936A0085539C400CF057DF8091680073
:1001B00086BF809169008CBF8091670090E09BBDF5
:1001C0008ABD8091660090E099BD88BDFF91EF9156
:1001D000BF91AF919F918F917F916F915F914F915F
:1001E0003F912F910F900FBE0F901F901895BE9AC0
:1001F000BD98BF9888E58DB980E48EB9789408954C
:100200001F920F920FB60F9211248F939F93EF932B
:10021000FF939FB180E48EB980916D00882389F0AF
:1002200080916C00883068F4E82FF0E0E259FF4FCD
:1002300090838F5F80936C00809162008F5F8093CA
:100240006200FF91EF919F918F910F900FBE0F90E1
:100250001F90189585B7826085BF8BB787608BBF6D
:100260000895843030F4E82FF0E0EA59FF4F6083BE
:100270000895843009F008956093600008951F92F6
:100280000F920FB60F9211241F932F933F934F930A
:100290005F936F937F938F939F93AF93BF93EF93EE
:1002A000FF93939B2DC010926D0090916C00933042
:1002B000A8F010E0E12FF0E0E259FF4F80811F5FCE
:1002C000E12FF0E0E259FF4F60811F5F9250909361
:1002D0006C00C7DF90916C00933060F7FF91EF9155
:1002E000BF91AF919F918F917F916F915F914F914E
:1002F0003F912F911F910F900FBE0F901F90189557
:1003000010926C0081E080936D00E8CF8A9A8FE0B4
:1003100089B912B886E083B91E9A1BB880E28AB9FF
:10032000539A8091600082958695877028E030E02E
:10033000281B31098FEF90E002C0959587952A958B
:10034000E2F78CB908951F920F920FB60F92112405
:100350002F933F938F939F93809160008295869512
:10036000877028E030E0281B31098FEF90E002C051
:10037000959587952A95E2F78CB99F918F913F913A
:100380002F910F900FBE0F901F901895CF93DF9372
:10039000EC01EE81FF81309709F009959881298160
:1003A0008A818823C1F09923B1F4809162008F5F24
:1003B000809362002223A1F48C81882311F0815064
:1003C0008C8381E08D83E885F985309711F08C81ED
:1003D0000995988129819A832B83DF91CF91089584
:1003E0008C818F3F71F38F5F8C83EBCF86E790E03A
:1003F000CDDF0895CF93DF93EC01FB011D828FE7E2
:100400008C83198618867F836E836115710511F0C0
:10041000CE01099588818A8389818B83DF91CF9171
:100420000895B898B99888B3836088BB86E790E050
:1004300065E272E0DFDF82E292E090937F008093DA
:100440007E000895809366000895FC0186B3817054
:10045000808386B38270818308951CBA0895E199E0
:10046000FECFF8948EBB6DBBE29AE19A7894089522
:10047000E199FECF8EBBE09A8DB308950F931F9341
:10048000CF93DF93982FEB01142F112361F0E199A3
:10049000FECF9EBBE09A8DB36881681749F4092F9F
:1004A0001150902FA1F7DF91CF911F910F910895D7
:1004B000092F0F5F2196892FD2DFF2CF1F93DF9391
:1004C000CF9300D000D0CDB7DEB78091660089838E
:1004D000809167008A83809168008B83809160009F
:1004E0008C83BE016F5F7F4FFB0110E09E012B5F8D
:1004F0003F4F8191180FE217F307D9F781E044E0ED
:10050000BDDF61E0611B80E0AADF0F900F900F90CC
:100510000F90CF91DF911F910895282F4423A1F0D0
:100520004150FB01CB01840F911DAC01922F9F5FC5
:10053000E199FECF2EBBE09A8DB38083E417F507D7
:1005400019F03196292FF2CF08950F931F93DF935F
:10055000CF9300D000D0CDB7DEB781E08E010F5F22
:100560001F4FB80144E0D9DFE199FECF1EBAE09AEF
:100570004DB3F80190E09E012B5F3F4F8191980FA2
:10058000E217F307D9F781E0891B481761F48981E5
:10059000809366008A81809367008B8180936800D6
:1005A0008C81809360000F900F900F900F90CF91EF
:0C05B000DF911F910F910895F894FFCF88
:0205BC008000BD
:00000001FF
