:1000000012C02AC050C128C027C026C09AC024C030
:10001000AEC122C021C020C01FC01EC01DC01CC058
:1000200003C11AC019C011241FBECFEDCDBF10E00F
:10003000A0E6B0E0E6E8F7E002C005900D92A63633
:10004000B107D9F710E0A6E6B0E001C01D92AA37CB
:10005000B107E1F702D095C3D3CF8E9A969AD5D146
:100060004CD2D9D04AD066D1789448EC50E09698DA
:1000700020ED37E0CA010197F1F721503040D1F768
:1000800080916600882319F010926600969A80EDA0
:1000900097E0FA013197F1F7019749F3FACFCF933F
:1000A000DF93EC01161617062CF52FEF3FEFA0E0BB
:1000B000B0E081E290E1FE01EA0FFB1FF081E0E099
:1000C0002E273F2740E005C0220F331F4F5F4830E7
:1000D00049F037FFF9CF220F331F282739274F5F09
:1000E0004830B9F71196A617B7072CF3C901DF916D
:1000F000CF9108952FEF3FEFF9CF83E080BF89E0E4
:100100008FBD83B7816083BF8EB581608EBDBA9A83
:10011000BB9ABC9A8D9A80B7806880BF80B7806296
:1001200080BF8FB580688FBD8FB580628FBD16BED2
:100130001BBC1ABC1CBE19BC18BC89B7826089BF25
:1001400008951F920F920FB60F9211242F933F9391
:100150004F935F936F937F938F939F93AF93BF93CF
:10016000EF93FF93809167009091680001969093C0
:1001700068008093670080916700909168008052CA
:100180009E4409F180916B0086BF80916C008CBF0A
:1001900080916A0090E09BBD8ABD8091690090E0EB
:1001A00099BD88BDFF91EF91BF91AF919F918F91C4
:1001B0007F916F915F914F913F912F910F900FBE63
:1001C0000F901F90189541D261E870E0CDD16093F7
:1001D00069003BD261E870E0C7D160936A0035D214
:1001E00061E870E0C1D160936B002FD261E870E0EC
:1001F000BBD160936C0029D261E870E0B5D1609307
:1002000060001092680010926700809166008F5F16
:1002100080936600B7CFBE9A87B387BB88E58DB958
:1002200080E48EB9789408951F920F920FB60F92C2
:1002300011248F939F93EF93FF939FB180E48EB926
:1002400080916E00882389F080916D00883068F479
:10025000E82FF0E0E159FF4F90838F5F80936D00AE
:10026000809166008F5F80936600FF91EF919F9170
:100270008F910F900FBE0F901F90189585B78260D9
:1002800085BF8BB787608BBF0895843030F4E82F2B
:10029000F0E0E759FF4F60830895843009F0089536
:1002A0006093600008951F920F920FB60F92112471
:1002B0001F932F933F934F935F936F937F938F93EE
:1002C0009F93AF93BF93EF93FF93939B2DC0109297
:1002D0006E0090916D009330A8F010E0E12FF0E0F7
:1002E000E159FF4F80811F5FE12FF0E0E159FF4F9F
:1002F00060811F5F925090936D00C7DF90916D00F9
:10030000933060F7FF91EF91BF91AF919F918F91E3
:100310007F916F915F914F913F912F911F910F901E
:100320000FBE0F901F90189510926D0081E0809382
:100330006E00E8CF8A9A8FE089B912B886E083B957
:100340001E9A1BB880E28AB9539A80916000829508
:100350008695877028E030E0281B31098FEF90E008
:1003600002C0959587952A95E2F78CB908951F925A
:100370000F920FB60F9211242F933F938F939F9359
:100380008091600082958695877028E030E0281B78
:1003900031098FEF90E002C0959587952A95E2F795
:1003A0008CB99F918F913F912F910F900FBE0F901D
:1003B0001F90189598B3109279008FE7809378007A
:1003C0009170909377000895FC018081882349F013
:1003D000662339F4442339F481818150818381E09B
:1003E00082836083089581818F5F8183F8CF68B3B2
:1003F00048B36170427087E790E0E6DF0895FC0142
:1004000012828FE78183608308951CBA0895E19971
:10041000FECFF8948EBB6DBBE29AE19A7894089572
:10042000E199FECF8EBBE09A8DB308950F931F9391
:10043000CF93DF93982FEB01142F112361F0E199F3
:10044000FECF9EBBE09A8DB36881681749F4092FEF
:100450001150902FA1F7DF91CF911F910F91089527
:10046000092F0F5F2196892FD2DFF2CF1F93DF93E1
:10047000CF9300D000D0CDB7DEB7809169008983DB
:1004800080916A008A8380916B008B8380916000E9
:100490008C83BE016F5F7F4FFB0110E09E012B5FDD
:1004A0003F4F8191180FE217F307D9F781E044E03D
:1004B000BDDF61E0611B80E0AADF0F900F900F901D
:1004C0000F90CF91DF911F910895282F4423A1F021
:1004D0004150FB01CB01840F911DAC01922F9F5F16
:1004E000E199FECF2EBBE09A8DB38083E417F50728
:1004F00019F03196292FF2CF08950F931F93DF93B0
:10050000CF9300D000D0CDB7DEB781E08E010F5F72
:100510001F4FB80144E0D9DFE199FECF1EBAE09A3F
:100520004DB3F80190E09E012B5F3F4F8191980FF2
:10053000E217F307D9F781E0891B481761F4898135
:10054000809369008A8180936A008B8180936B001D
:100550008C81809360000F900F900F900F90CF913F
:10056000DF911F910F91089597FB092E07260AD05E
:1005700077FD04D00CD006D000201AF47095619558
:100580007F4F0895F6F7909581959F4F0895AA1B88
:10059000BB1B51E107C0AA1FBB1FA617B70710F06E
:1005A000A61BB70B881F991F5A95A9F780959095A0
:1005B000BC01CD010895A0E0B0E0E0EEF2E090C013
:1005C000EC01A880B980CA80DB80A114B104C10409
:1005D000D10441F484E2A82E89EDB82E8BE5C82E13
:1005E00087E0D82EC601B5012DE133EF41E050E0A0
:1005F00054D027EA31E440E050E036D07B018C0152
:10060000C601B5012DE133EF41E050E046D0CA010B
:10061000B9012CEE34EF4FEF5FEF26D06E0D7F1D4A
:10062000801F911F97FF04C0615070408040904828
:10063000688379838A839B839B013F77C901CDB708
:10064000DEB7EAE069C0B7DF089581E690E0B3DF86
:100650000895A0E0B0E08093610090936200A093C1
:100660006300B09364000895FF27EE27BB27AA27F5
:1006700060FF04C0A20FB31FE41FF51F220F331F3A
:10068000441F551F969587957795679589F700972D
:10069000760771F7CF01BD01089597FB092E052656
:1006A0000ED057FD04D04BD00AD0001C38F4509522
:1006B0004095309521953F4F4F4F5F4F0895F6F786
:1006C00090958095709561957F4F8F4F9F4F0895BE
:1006D0002F923F924F925F926F927F928F929F9252
:1006E000AF92BF92CF92DF92EF92FF920F931F9340
:1006F000CF93DF93CDB7DEB7CA1BDB0B0FB6F894F1
:10070000DEBF0FBECDBF09942A88398848885F8430
:100710006E847D848C849B84AA84B984C884DF80A1
:10072000EE80FD800C811B81AA81B981CE0FD11D85
:100730000FB6F894DEBF0FBECDBFED010895A1E264
:100740001A2EAA1BBB1BFD010DC0AA1FBB1FEE1F4B
:10075000FF1FA217B307E407F50720F0A21BB30B96
:10076000E40BF50B661F771F881F991F1A9469F712
:1007700060957095809590959B01AC01BD01CF016E
:060780000895F894FFCF7C
:06078600800100000000EC
:00000001FF
