S00F000070776D323331332E73726563F8
S113000012C02AC029C028C027C026C098C024C056
S113001043C122C021C020C01FC01EC01DC01CC0BF
S113002004C11AC019C011241FBECFEDCDBF10E00A
S1130030A0E6B0E0ECEFF4E002C005900D92A63625
S1130040B107D9F710E0A6E6B0E001C01D92AD36C5
S1130050B107E1F702D050C2D3CF8E9A969AD9D085
S11300604AD0FDD0789448EC50E0969820ED37E0E3
S1130070CA010197F1F721503040D1F78091660011
S1130080882319F010926600969A80ED97E0FA01A1
S11300903197F1F7019749F3FACFCF93DF93EC014E
S11300A0161617062CF52FEF3FEFA0E0B0E081E223
S11300B090E1FE01EA0FFB1FF081E0E02E273F27CD
S11300C040E005C0220F331F4F5F483049F037FF2F
S11300D0F9CF220F331F282739274F5F4830B9F74C
S11300E01196A617B7072CF3C901DF91CF91089594
S11300F02FEF3FEFF9CF83E080BF89E08FBD83B757
S1130100816083BF8EB581608EBDBA9ABB9ABC9A5A
S11301108D9A80B7806880BF80B7806280BF8FB5BA
S113012080688FBD8FB580628FBD16BE1BBC1ABCA4
S11301301CBE19BC18BC89B7826089BF08951F9280
S11301400F920FB60F9211242F933F934F935F9307
S11301506F937F938F939F93AF93BF93EF93FF938B
S11301608091670090916800019690936800809355
S1130170670080916700909168008051974209F16F
S113018080916B0086BF80916C008CBF80916A0067
S113019090E09BBD8ABD8091690090E099BD88BDC7
S11301A0FF91EF91BF91AF919F918F917F916F914B
S11301B05F914F913F912F910F900FBE0F901F9021
S11301C01895FED061E870E08AD060936900F8D099
S11301D061E870E084D060936A00F2D061E870E076
S11301E07ED060936B00ECD061E870E078D06093CF
S11301F06C00E6D061E870E072D060936100109208
S1130200680010926700809166008F5F809366009B
S1130210B7CFBE9A87B387BB88B3806A88BB88E5AB
S11302208DB980E48EB9789408951F920F920FB619
S11302300F9211248F939F938FB18093600090E469
S11302409EB980958FB9809166008F5F8093660018
S11302509F918F910F900FBE0F901F9018958A9ABF
S11302608FE089B912B886E083B91E9A1BB880E280
S11302708AB9539A8091610082958695877028E0A7
S113028030E0281B31098FEF90E002C095958795E7
S11302902A95E2F78CB908951F920F920FB60F9228
S11302A011242F933F938F939F93809161008295A4
S11302B08695877028E030E0281B31098FEF90E0A5
S11302C002C0959587952A95E2F78CB99F918F91F5
S11302D03F912F910F900FBE0F901F90189597FB91
S11302E0092E07260AD077FD04D00CD006D00020B2
S11302F01AF4709561957F4F0895F6F7909581955E
S11303009F4F0895AA1BBB1B51E107C0AA1FBB1F27
S1130310A617B70710F0A61BB70B881F991F5A958D
S1130320A9F780959095BC01CD010895A0E0B0E0B7
S1130330EBE9F1E090C0EC01A880B980CA80DB80D1
S1130340A114B104C104D10441F484E2A82E89EDBE
S1130350B82E8BE5C82E87E0D82EC601B5012DE155
S113036033EF41E050E054D027EA31E440E050E07C
S113037036D07B018C01C601B5012DE133EF41E09C
S113038050E046D0CA01B9012CEE34EF4FEF5FEFD5
S113039026D06E0D7F1D801F911F97FF04C06150F2
S11303A0704080409048688379838A839B839B0153
S11303B03F77C901CDB7DEB7EAE069C0B7DF08957A
S11303C082E690E0B3DF0895A0E0B0E0809362009D
S11303D090936300A0936400B09365000895FF2791
S11303E0EE27BB27AA2760FF04C0A20FB31FE41F98
S11303F0F51F220F331F441F551F96958795779538
S1130400679589F70097760771F7CF01BD010895C5
S113041097FB092E05260ED057FD04D04BD00AD0E9
S1130420001C38F450954095309521953F4F4F4F1F
S11304305F4F0895F6F790958095709561957F4F7D
S11304408F4F9F4F08952F923F924F925F926F92DA
S11304507F928F929F92AF92BF92CF92DF92EF9250
S1130460FF920F931F93CF93DF93CDB7DEB7CA1BD1
S1130470DB0B0FB6F894DEBF0FBECDBF09942A88FC
S1130480398848885F846E847D848C849B84AA84A4
S1130490B984C884DF80EE80FD800C811B81AA8131
S11304A0B981CE0FD11D0FB6F894DEBF0FBECDBFFC
S11304B0ED010895A1E21A2EAA1BBB1BFD010DC07C
S11304C0AA1FBB1FEE1FFF1FA217B307E407F50700
S11304D020F0A21BB30BE40BF50B661F771F881FDC
S11304E0991F1A9469F760957095809590959B0172
S10F04F0AC01BD01CF010895F894FFCFCA
S10904FC01800100000074
S9030000FC
