:1000000012C02AC02AC128C027C026C09FC024C051
:1000100088C122C021C020C01FC01EC01DC01CC07E
:10002000DDC01AC019C011241FBECFEDCDBF10E036
:10003000A0E6B0E0E8E9F5E002C005900D92A23636
:10004000B107D9F710E0A2E6B0E001C01D92AF37CA
:10005000B107E1F704D09EC2D3CFB6D108958E9AEE
:10006000969AE9D160D24ED03FD1C9D181E0809338
:100070006200789448EC50E0969820ED37E0CA0191
:100080000197F1F721503040D1F780916200882329
:1000900019F010926200969A80ED97E0FA0131977C
:1000A000F1F7019749F3FACFCF93DF93EC011616DE
:1000B00017062CF52FEF3FEFA0E0B0E081E290E1D2
:1000C000FE01EA0FFB1FF081E0E02E273F2740E012
:1000D00005C0220F331F4F5F483049F037FFF9CF7B
:1000E000220F331F282739274F5F4830B9F7119661
:1000F000A617B7072CF3C901DF91CF9108952FEF11
:100100003FEFF9CF83E080BF89E08FBD83B7816087
:1001100083BF8EB581608EBDBA9ABB9ABC9A8D9A08
:1001200080B7806880BF80B7806280BF8FB58068ED
:100130008FBD8FB580628FBD16BE1BBC1ABC1CBEA6
:1001400019BC18BC89B7826089BF08951F920F92AD
:100150000FB60F9211242F933F934F935F936F939A
:100160007F938F939F93AF93BF93EF93FF93809170
:10017000690090916A00019690936A0080936900EB
:1001800085539C400CF069DF8091670086BF8091A9
:1001900068008CBF8091660090E09BBD8ABD809115
:1001A000650090E099BD88BDFF91EF91BF91AF913F
:1001B0009F918F917F916F915F914F913F912F917F
:1001C0000F900FBE0F901F901895BE9ABD98BF98C4
:1001D00088E58DB980E48EB9789408951F920F92C6
:1001E0000FB60F9211248F939F93EF93FF939FB1BC
:1001F00080E48EB980916C00882389F080916B0037
:10020000883068F4E82FF0E0E359FF4F90838F5F68
:1002100080936B00809162008F5F80936200FF91FA
:10022000EF919F918F910F900FBE0F901F90189597
:1002300085B7826085BF8BB787608BBF0895843098
:1002400030F4E82FF0E0EB59FF4F608308958430DD
:1002500009F008956093600008951F920F920FB601
:100260000F9211241F932F933F934F935F936F939C
:100270007F938F939F93AF93BF93EF93FF93939B42
:100280002DC010926C0090916B009330A8F010E09C
:10029000E12FF0E0E359FF4F80811F5FE12FF0E095
:1002A000E359FF4F60811F5F925090936B00C7DF4F
:1002B00090916B00933060F7FF91EF91BF91AF91F8
:1002C0009F918F917F916F915F914F913F912F916E
:1002D0001F910F900FBE0F901F90189510926B00FA
:1002E00081E080936C00E8CF8A9A8FE089B912B8D8
:1002F00086E083B91E9A1BB880E28AB9539A80912E
:10030000600082958695877028E030E0281B3109CF
:100310008FEF90E002C0959587952A95E2F78CB90A
:1003200008951F920F920FB60F9211242F933F93AF
:100330008F939F938091600082958695877028E0C7
:1003400030E0281B31098FEF90E002C0959587952A
:100350002A95E2F78CB99F918F913F912F910F9041
:100360000FBE0F901F901895CF93DF93EC01EE8195
:10037000FF81309709F00995988129818A81882326
:10038000C1F09923B1F4809162008F5F8093620085
:100390002223A1F48C81882311F081508C8381E089
:1003A0008D83E885F985309711F08C8109959881C6
:1003B00029819A832B83DF91CF9108958C818F3F80
:1003C00071F38F5F8C83EBCF85E790E0CDDF0895ED
:1003D000CF93DF93EC01FB011D828FE78C8319869D
:1003E00018867F836E836115710511F0CE01099522
:1003F00088818A8389818B83DF91CF910895B89812
:10040000B99888B3836088BB85E790E063E172E0C8
:10041000DFDF80E192E090937E0080937D0008957D
:10042000809365000895FC0186B38170808386B354
:100430008270818308951CBA0895E199FECFF894E3
:100440008EBB6DBBE29AE19A78940895E199FECF54
:100450008EBBE09A8DB308950F931F93CF93DF93D4
:10046000982FEB01142F112361F0E199FECF9EBB71
:10047000E09A8DB36881681749F4092F1150902FC5
:10048000A1F7DF91CF911F910F910895092F0F5F71
:100490002196892FD2DFF2CF1F93DF93CF9300D025
:1004A00000D0CDB7DEB7809165008983809166006A
:1004B0008A83809167008B83809160008C83BE016A
:1004C0006F5F7F4FFB0110E09E012B5F3F4F8191DB
:1004D000180FE217F307D9F781E044E0BDDF61E0D0
:1004E000611B80E0AADF0F900F900F900F90CF91CB
:1004F000DF911F910895282F4423A1F04150FB0163
:10050000CB01840F911DAC01922F9F5FE199FECF2B
:100510002EBBE09A8DB38083E417F50719F031966E
:10052000292FF2CF08950F931F93DF93CF9300D01D
:1005300000D0CDB7DEB781E08E010F5F1F4FB8014D
:1005400044E0D9DFE199FECF1EBAE09A4DB3F8013D
:1005500090E09E012B5F3F4F8191980FE217F307C8
:10056000D9F781E0891B481761F489818093650080
:100570008A81809366008B81809367008C81809351
:1005800060000F900F900F900F90CF91DF911F910F
:080590000F910895F894FFCFCC
:020598008000E1
:00000001FF
